{
  "contractName": "CrowdsaleList",
  "abi": [
    {
      "constant": false,
      "inputs": [],
      "name": "renounceOwnership",
      "outputs": [],
      "payable": false,
      "stateMutability": "nonpayable",
      "type": "function"
    },
    {
      "constant": true,
      "inputs": [],
      "name": "owner",
      "outputs": [
        {
          "name": "",
          "type": "address"
        }
      ],
      "payable": false,
      "stateMutability": "view",
      "type": "function"
    },
    {
      "constant": false,
      "inputs": [
        {
          "name": "_newOwner",
          "type": "address"
        }
      ],
      "name": "transferOwnership",
      "outputs": [],
      "payable": false,
      "stateMutability": "nonpayable",
      "type": "function"
    },
    {
      "anonymous": false,
      "inputs": [
        {
          "indexed": true,
          "name": "previousOwner",
          "type": "address"
        }
      ],
      "name": "OwnershipRenounced",
      "type": "event"
    },
    {
      "anonymous": false,
      "inputs": [
        {
          "indexed": true,
          "name": "previousOwner",
          "type": "address"
        },
        {
          "indexed": true,
          "name": "newOwner",
          "type": "address"
        }
      ],
      "name": "OwnershipTransferred",
      "type": "event"
    },
    {
      "constant": false,
      "inputs": [
        {
          "name": "crowsale",
          "type": "address"
        }
      ],
      "name": "addCrowdsale",
      "outputs": [],
      "payable": false,
      "stateMutability": "nonpayable",
      "type": "function"
    },
    {
      "constant": true,
      "inputs": [
        {
          "name": "index",
          "type": "uint256"
        }
      ],
      "name": "getCrowdsaleByIndex",
      "outputs": [
        {
          "name": "",
          "type": "address"
        }
      ],
      "payable": false,
      "stateMutability": "view",
      "type": "function"
    },
    {
      "constant": true,
      "inputs": [],
      "name": "getCrowdsaleCount",
      "outputs": [
        {
          "name": "",
          "type": "uint256"
        }
      ],
      "payable": false,
      "stateMutability": "view",
      "type": "function"
    }
  ],
  "bytecode": "0x608060405260008054600160a060020a03191633179055610333806100256000396000f3006080604052600436106100775763ffffffff7c01000000000000000000000000000000000000000000000000000000006000350416632a4982c5811461007c5780635931598d146100a3578063715018a6146100c657806371b9758e146100db5780638da5cb5b1461010f578063f2fde38b14610124575b600080fd5b34801561008857600080fd5b50610091610145565b60408051918252519081900360200190f35b3480156100af57600080fd5b506100c4600160a060020a036004351661014b565b005b3480156100d257600080fd5b506100c46101c0565b3480156100e757600080fd5b506100f360043561022c565b60408051600160a060020a039092168252519081900360200190f35b34801561011b57600080fd5b506100f3610258565b34801561013057600080fd5b506100c4600160a060020a0360043516610267565b60015490565b600054600160a060020a0316331461016257600080fd5b6001805480820182556000919091527fb10e2d527612073b26eecdfd717e6a320cf44b4afac2b0732d9fcbe2b7fa0cf601805473ffffffffffffffffffffffffffffffffffffffff1916600160a060020a0392909216919091179055565b600054600160a060020a031633146101d757600080fd5b60008054604051600160a060020a03909116917ff8df31144d9c2f0f6b59d69b8b98abd5459d07f2742c4df920b25aae33c6482091a26000805473ffffffffffffffffffffffffffffffffffffffff19169055565b600060018281548110151561023d57fe5b600091825260209091200154600160a060020a031692915050565b600054600160a060020a031681565b600054600160a060020a0316331461027e57600080fd5b6102878161028a565b50565b600160a060020a038116151561029f57600080fd5b60008054604051600160a060020a03808516939216917f8be0079c531659141344cd1fd0a4f28419497f9722a3daafe3b4186f6b6457e091a36000805473ffffffffffffffffffffffffffffffffffffffff1916600160a060020a03929092169190911790555600a165627a7a72305820a11e9ee155a942044c64e13b6eb26546a42effd3c4cffce31b505bfa0c555d560029",
  "source": "pragma solidity ^0.4.24;\n\nimport \"zeppelin-solidity/contracts/ownership/Ownable.sol\";\n\ncontract CrowdsaleList is Ownable{\n    address[] crowdsales;\n\n    function addCrowdsale(address crowsale) public onlyOwner {\n        crowdsales.push(crowsale);\n    }\n\n    function getCrowdsaleByIndex(uint256 index) public view returns(address){\n        return crowdsales[index];\n    }\n\n    function getCrowdsaleCount() public view returns(uint256){\n        return crowdsales.length;\n    }\n}",
  "sourcePath": "/home/alejandro/workspace/espinlabs/erc721/contracts/crowdsale/CrowdsaleList.sol",
  "compiler": {
    "name": "solc",
    "version": "0.4.24+commit.e67f0147.Emscripten.clang"
  },
  "schemaVersion": "2.0.0",
  "updatedAt": "2018-10-08T12:53:50.566Z"
}