{
  "contractName": "CrowdsaleERC721",
  "abi": [
    {
      "constant": true,
      "inputs": [],
      "name": "weiRaised",
      "outputs": [
        {
          "name": "",
          "type": "uint256"
        }
      ],
      "payable": false,
      "stateMutability": "view",
      "type": "function"
    },
    {
      "constant": true,
      "inputs": [],
      "name": "wallet",
      "outputs": [
        {
          "name": "",
          "type": "address"
        }
      ],
      "payable": false,
      "stateMutability": "view",
      "type": "function"
    },
    {
      "constant": false,
      "inputs": [],
      "name": "renounceOwnership",
      "outputs": [],
      "payable": false,
      "stateMutability": "nonpayable",
      "type": "function"
    },
    {
      "constant": true,
      "inputs": [],
      "name": "owner",
      "outputs": [
        {
          "name": "",
          "type": "address"
        }
      ],
      "payable": false,
      "stateMutability": "view",
      "type": "function"
    },
    {
      "constant": false,
      "inputs": [
        {
          "name": "_newOwner",
          "type": "address"
        }
      ],
      "name": "transferOwnership",
      "outputs": [],
      "payable": false,
      "stateMutability": "nonpayable",
      "type": "function"
    },
    {
      "constant": true,
      "inputs": [
        {
          "name": "",
          "type": "uint256"
        }
      ],
      "name": "tokenArray",
      "outputs": [
        {
          "name": "",
          "type": "uint256"
        }
      ],
      "payable": false,
      "stateMutability": "view",
      "type": "function"
    },
    {
      "constant": true,
      "inputs": [],
      "name": "token",
      "outputs": [
        {
          "name": "",
          "type": "address"
        }
      ],
      "payable": false,
      "stateMutability": "view",
      "type": "function"
    },
    {
      "inputs": [
        {
          "name": "_wallet",
          "type": "address"
        },
        {
          "name": "_token",
          "type": "address"
        }
      ],
      "payable": false,
      "stateMutability": "nonpayable",
      "type": "constructor"
    },
    {
      "payable": true,
      "stateMutability": "payable",
      "type": "fallback"
    },
    {
      "anonymous": false,
      "inputs": [
        {
          "indexed": false,
          "name": "tokenId",
          "type": "uint256"
        },
        {
          "indexed": false,
          "name": "name",
          "type": "string"
        },
        {
          "indexed": false,
          "name": "priceWei",
          "type": "uint256"
        }
      ],
      "name": "NewDemoToken",
      "type": "event"
    },
    {
      "anonymous": false,
      "inputs": [
        {
          "indexed": true,
          "name": "purchaser",
          "type": "address"
        },
        {
          "indexed": true,
          "name": "beneficiary",
          "type": "address"
        },
        {
          "indexed": false,
          "name": "value",
          "type": "uint256"
        },
        {
          "indexed": false,
          "name": "_tokenId",
          "type": "uint256"
        }
      ],
      "name": "TokenPurchase",
      "type": "event"
    },
    {
      "anonymous": false,
      "inputs": [
        {
          "indexed": true,
          "name": "previousOwner",
          "type": "address"
        }
      ],
      "name": "OwnershipRenounced",
      "type": "event"
    },
    {
      "anonymous": false,
      "inputs": [
        {
          "indexed": true,
          "name": "previousOwner",
          "type": "address"
        },
        {
          "indexed": true,
          "name": "newOwner",
          "type": "address"
        }
      ],
      "name": "OwnershipTransferred",
      "type": "event"
    },
    {
      "constant": false,
      "inputs": [
        {
          "name": "_tokenId",
          "type": "uint256"
        },
        {
          "name": "_name",
          "type": "string"
        },
        {
          "name": "_priceWei",
          "type": "uint256"
        }
      ],
      "name": "addToken",
      "outputs": [],
      "payable": false,
      "stateMutability": "nonpayable",
      "type": "function"
    },
    {
      "constant": true,
      "inputs": [],
      "name": "getNumberOfTokens",
      "outputs": [
        {
          "name": "",
          "type": "uint256"
        }
      ],
      "payable": false,
      "stateMutability": "view",
      "type": "function"
    },
    {
      "constant": true,
      "inputs": [
        {
          "name": "index",
          "type": "uint256"
        }
      ],
      "name": "getTokenByIndex",
      "outputs": [
        {
          "name": "",
          "type": "uint256"
        },
        {
          "name": "",
          "type": "string"
        },
        {
          "name": "",
          "type": "uint256"
        },
        {
          "name": "",
          "type": "bool"
        }
      ],
      "payable": false,
      "stateMutability": "view",
      "type": "function"
    },
    {
      "constant": false,
      "inputs": [
        {
          "name": "_tokenId",
          "type": "uint256"
        }
      ],
      "name": "buyToken",
      "outputs": [],
      "payable": true,
      "stateMutability": "payable",
      "type": "function"
    }
  ],
  "bytecode": "0x608060405234801561001057600080fd5b506040516040806112098339810180604052810190808051906020019092919080519060200190929190505050336000806101000a81548173ffffffffffffffffffffffffffffffffffffffff021916908373ffffffffffffffffffffffffffffffffffffffff160217905550600073ffffffffffffffffffffffffffffffffffffffff168273ffffffffffffffffffffffffffffffffffffffff16141515156100b957600080fd5b600073ffffffffffffffffffffffffffffffffffffffff168173ffffffffffffffffffffffffffffffffffffffff16141515156100f557600080fd5b81600260006101000a81548173ffffffffffffffffffffffffffffffffffffffff021916908373ffffffffffffffffffffffffffffffffffffffff16021790555080600160006101000a81548173ffffffffffffffffffffffffffffffffffffffff021916908373ffffffffffffffffffffffffffffffffffffffff1602179055505050611081806101886000396000f3006080604052600436106100af576000357c0100000000000000000000000000000000000000000000000000000000900463ffffffff1680632d296bf1146101275780634042b66f14610147578063521eb27314610172578063644b7a43146101c9578063715018a6146102885780638da5cb5b1461029f578063c847d6c4146102f6578063efeecb5114610373578063f2fde38b1461039e578063faa32f5d146103e1578063fc0c546a14610422575b60001515610125576040517f08c379a000000000000000000000000000000000000000000000000000000000815260040180806020018281038252601e8152602001807f596f75206d75737420737065636966696564206120546f6b656e2049442e000081525060200191505060405180910390fd5b005b61014560048036038101908080359060200190929190505050610479565b005b34801561015357600080fd5b5061015c610541565b6040518082815260200191505060405180910390f35b34801561017e57600080fd5b50610187610547565b604051808273ffffffffffffffffffffffffffffffffffffffff1673ffffffffffffffffffffffffffffffffffffffff16815260200191505060405180910390f35b3480156101d557600080fd5b506101f46004803603810190808035906020019092919050505061056d565b604051808581526020018060200184815260200183151515158152602001828103825285818151815260200191508051906020019080838360005b8381101561024a57808201518184015260208101905061022f565b50505050905090810190601f1680156102775780820380516001836020036101000a031916815260200191505b509550505050505060405180910390f35b34801561029457600080fd5b5061029d610675565b005b3480156102ab57600080fd5b506102b4610777565b604051808273ffffffffffffffffffffffffffffffffffffffff1673ffffffffffffffffffffffffffffffffffffffff16815260200191505060405180910390f35b34801561030257600080fd5b5061037160048036038101908080359060200190929190803590602001908201803590602001908080601f01602080910402602001604051908101604052809392919081815260200183838082843782019150505050505091929192908035906020019092919050505061079c565b005b34801561037f57600080fd5b50610388610b48565b6040518082815260200191505060405180910390f35b3480156103aa57600080fd5b506103df600480360381019080803573ffffffffffffffffffffffffffffffffffffffff169060200190929190505050610b55565b005b3480156103ed57600080fd5b5061040c60048036038101908080359060200190929190505050610bbc565b6040518082815260200191505060405180910390f35b34801561042e57600080fd5b50610437610bdf565b604051808273ffffffffffffffffffffffffffffffffffffffff1673ffffffffffffffffffffffffffffffffffffffff16815260200191505060405180910390f35b60008033915034905061048d828285610c05565b6104a281600354610ca990919063ffffffff16565b6003819055506104b28284610cc5565b8173ffffffffffffffffffffffffffffffffffffffff163373ffffffffffffffffffffffffffffffffffffffff167f623b3804fa71d67900d064613da8f94b9617215ee90799290593e1745087ad188386604051808381526020018281526020019250505060405180910390a361052a828285610cd3565b610532610d07565b61053c8282610d72565b505050565b60035481565b600260009054906101000a900473ffffffffffffffffffffffffffffffffffffffff1681565b6000606060008060008060048781548110151561058657fe5b9060005260206000200154915060056000838152602001908152602001600020905080600001548160010182600201548360030160009054906101000a900460ff16828054600181600116156101000203166002900480601f01602080910402602001604051908101604052809291908181526020018280546001816001161561010002031660029004801561065d5780601f106106325761010080835404028352916020019161065d565b820191906000526020600020905b81548152906001019060200180831161064057829003601f168201915b50505050509250955095509550955050509193509193565b6000809054906101000a900473ffffffffffffffffffffffffffffffffffffffff1673ffffffffffffffffffffffffffffffffffffffff163373ffffffffffffffffffffffffffffffffffffffff161415156106d057600080fd5b6000809054906101000a900473ffffffffffffffffffffffffffffffffffffffff1673ffffffffffffffffffffffffffffffffffffffff167ff8df31144d9c2f0f6b59d69b8b98abd5459d07f2742c4df920b25aae33c6482060405160405180910390a260008060006101000a81548173ffffffffffffffffffffffffffffffffffffffff021916908373ffffffffffffffffffffffffffffffffffffffff160217905550565b6000809054906101000a900473ffffffffffffffffffffffffffffffffffffffff1681565b6107a4610f85565b6000809054906101000a900473ffffffffffffffffffffffffffffffffffffffff1673ffffffffffffffffffffffffffffffffffffffff163373ffffffffffffffffffffffffffffffffffffffff161415156107ff57600080fd5b600160009054906101000a900473ffffffffffffffffffffffffffffffffffffffff1673ffffffffffffffffffffffffffffffffffffffff16634f558e79856040518263ffffffff167c010000000000000000000000000000000000000000000000000000000002815260040180828152602001915050602060405180830381600087803b15801561089057600080fd5b505af11580156108a4573d6000803e3d6000fd5b505050506040513d60208110156108ba57600080fd5b810190808051906020019092919050505015156108d657600080fd5b3373ffffffffffffffffffffffffffffffffffffffff16600160009054906101000a900473ffffffffffffffffffffffffffffffffffffffff1673ffffffffffffffffffffffffffffffffffffffff16636352211e866040518263ffffffff167c010000000000000000000000000000000000000000000000000000000002815260040180828152602001915050602060405180830381600087803b15801561097e57600080fd5b505af1158015610992573d6000803e3d6000fd5b505050506040513d60208110156109a857600080fd5b810190808051906020019092919050505073ffffffffffffffffffffffffffffffffffffffff161415156109db57600080fd5b60806040519081016040528085815260200184815260200183815260200160011515815250905060048490806001815401808255809150509060018203906000526020600020016000909192909190915055508060056000868152602001908152602001600020600082015181600001556020820151816001019080519060200190610a68929190610fb0565b506040820151816002015560608201518160030160006101000a81548160ff0219169083151502179055509050507f6dd0270bf62d2e8a369be6882a6117c5e76abb45df23c67e54b98671fb9a04168484846040518084815260200180602001838152602001828103825284818151815260200191508051906020019080838360005b83811015610b06578082015181840152602081019050610aeb565b50505050905090810190601f168015610b335780820380516001836020036101000a031916815260200191505b5094505050505060405180910390a150505050565b6000600480549050905090565b6000809054906101000a900473ffffffffffffffffffffffffffffffffffffffff1673ffffffffffffffffffffffffffffffffffffffff163373ffffffffffffffffffffffffffffffffffffffff16141515610bb057600080fd5b610bb981610d76565b50565b600481815481101515610bcb57fe5b906000526020600020016000915090505481565b600160009054906101000a900473ffffffffffffffffffffffffffffffffffffffff1681565b600073ffffffffffffffffffffffffffffffffffffffff168373ffffffffffffffffffffffffffffffffffffffff1614151515610c4157600080fd5b60008214151515610c5157600080fd5b6005600082815260200190815260200160002060030160009054906101000a900460ff161515610c8057600080fd5b816005600083815260200190815260200160002060020154141515610ca457600080fd5b505050565b60008183019050828110151515610cbc57fe5b80905092915050565b610ccf8282610e70565b5050565b60006005600083815260200190815260200160002060030160006101000a81548160ff021916908315150217905550505050565b600260009054906101000a900473ffffffffffffffffffffffffffffffffffffffff1673ffffffffffffffffffffffffffffffffffffffff166108fc349081150290604051600060405180830381858888f19350505050158015610d6f573d6000803e3d6000fd5b50565b5050565b600073ffffffffffffffffffffffffffffffffffffffff168173ffffffffffffffffffffffffffffffffffffffff1614151515610db257600080fd5b8073ffffffffffffffffffffffffffffffffffffffff166000809054906101000a900473ffffffffffffffffffffffffffffffffffffffff1673ffffffffffffffffffffffffffffffffffffffff167f8be0079c531659141344cd1fd0a4f28419497f9722a3daafe3b4186f6b6457e060405160405180910390a3806000806101000a81548173ffffffffffffffffffffffffffffffffffffffff021916908373ffffffffffffffffffffffffffffffffffffffff16021790555050565b600160009054906101000a900473ffffffffffffffffffffffffffffffffffffffff1673ffffffffffffffffffffffffffffffffffffffff166342842e0e3084846040518463ffffffff167c0100000000000000000000000000000000000000000000000000000000028152600401808473ffffffffffffffffffffffffffffffffffffffff1673ffffffffffffffffffffffffffffffffffffffff1681526020018373ffffffffffffffffffffffffffffffffffffffff1673ffffffffffffffffffffffffffffffffffffffff1681526020018281526020019350505050600060405180830381600087803b158015610f6957600080fd5b505af1158015610f7d573d6000803e3d6000fd5b505050505050565b6080604051908101604052806000815260200160608152602001600081526020016000151581525090565b828054600181600116156101000203166002900490600052602060002090601f016020900481019282601f10610ff157805160ff191683800117855561101f565b8280016001018555821561101f579182015b8281111561101e578251825591602001919060010190611003565b5b50905061102c9190611030565b5090565b61105291905b8082111561104e576000816000905550600101611036565b5090565b905600a165627a7a723058205f42335c5d752d1f221b29712a5fd09f8138c9b5363d85dffb7c9c8fcd0eec1e0029",
  "source": "pragma solidity ^0.4.24;\n\nimport \"../token/DemoToken.sol\";\n\ncontract CrowdsaleERC721 is Ownable{\n\n    using SafeMath for uint256;\n\n    // The token being sold\n    DemoToken public token;\n\n    // Address where funds are collected\n    address public wallet;\n\n    // Amount of wei raised\n    uint256 public weiRaised;\n\n    struct Token {\n        uint256 id;\n        string name;\n        uint256 priceWei;\n        bool available;\n    }\n\n    event NewDemoToken(uint tokenId, string name, uint256 priceWei);\n\n    uint256[] public tokenArray;\n    mapping(uint256 => Token) tokens;\n\n    function addToken(uint256 _tokenId, string _name, uint256 _priceWei) public onlyOwner {\n        require(token.exists(_tokenId));\n        require(token.ownerOf(_tokenId) == msg.sender);\n\n        Token memory _token = Token(_tokenId, _name, _priceWei, true);\n        tokenArray.push(_tokenId);\n        tokens[_tokenId] = _token;\n\n        emit NewDemoToken(_tokenId, _name, _priceWei);\n    }\n\n    function getNumberOfTokens() public view returns (uint256){\n        return tokenArray.length;\n    }\n\n    function getTokenByIndex(uint256 index) public view returns (uint256, string, uint256, bool){\n        uint256 _tokenId = tokenArray[index];\n        Token storage _token = tokens[_tokenId];\n        return (_token.id, _token.name, _token.priceWei, _token.available);\n    }\n\n    /**\n     * Event for token purchase logging\n     * @param purchaser who paid for the tokens\n     * @param beneficiary who got the tokens\n     * @param value weis paid for purchase\n     * @param _tokenId Id of the token purchased\n     */\n    event TokenPurchase(\n        address indexed purchaser,\n        address indexed beneficiary,\n        uint256 value,\n        uint256 _tokenId\n    );\n\n    /**\n     * @param _wallet Address where collected funds will be forwarded to\n     * @param _token Address of the token being sold\n     */\n    constructor(address _wallet, DemoToken _token) public {\n        require(_wallet != address(0));\n        require(_token != address(0));\n\n        wallet = _wallet;\n        token = _token;\n    }\n\n    // -----------------------------------------\n    // Crowdsale external interface\n    // -----------------------------------------\n\n    /**\n     * @dev fallback function ***DO NOT OVERRIDE***\n     */\n    function () external payable {\n        require(\n            false,\n            \"You must specified a Token ID.\"\n        );\n    }\n\n    /**\n   * @dev low level token purchase ***DO NOT OVERRIDE***\n   * @param _tokenId Id of the token being purchased\n   */\n    function buyToken(uint256 _tokenId) public payable {\n\n        address _beneficiary = msg.sender;\n\n        uint256 weiAmount = msg.value;\n        _preValidatePurchase(_beneficiary, weiAmount, _tokenId);\n\n        // update state\n        weiRaised = weiRaised.add(weiAmount);\n\n        _processPurchase(_beneficiary, _tokenId);\n        emit TokenPurchase(\n            msg.sender,\n            _beneficiary,\n            weiAmount,\n            _tokenId\n        );\n\n        _updatePurchasingState(_beneficiary, weiAmount, _tokenId);\n\n        _forwardFunds();\n        _postValidatePurchase(_beneficiary, weiAmount);\n    }\n\n    /**\n     * @dev Validation of an incoming purchase. Use require statements to revert state when conditions are not met. Use `super` in contracts that inherit from Crowdsale to extend their validations.\n     * Example from CappedCrowdsale.sol's _preValidatePurchase method:\n     *   super._preValidatePurchase(_beneficiary, _weiAmount);\n     *   require(weiRaised.add(_weiAmount) <= cap);\n     * @param _beneficiary Address performing the token purchase\n     * @param _weiAmount Value in wei involved in the purchase\n     */\n    function _preValidatePurchase(\n        address _beneficiary,\n        uint256 _weiAmount,\n        uint256 _tokenId\n    )\n    internal\n    {\n        require(_beneficiary != address(0));\n        require(_weiAmount != 0);\n        require(tokens[_tokenId].available);\n        require(tokens[_tokenId].priceWei == _weiAmount);\n    }\n\n    /**\n  * @dev Validation of an executed purchase. Observe state and use revert statements to undo rollback when valid conditions are not met.\n  * @param _beneficiary Address performing the token purchase\n  * @param _weiAmount Value in wei involved in the purchase\n  */\n    function _postValidatePurchase(\n        address _beneficiary,\n        uint256 _weiAmount\n    )\n    internal\n    {\n        // optional override\n    }\n\n    /**\n     * @dev Source of tokens. Override this method to modify the way in which the crowdsale ultimately gets and sends its tokens.\n     * @param _beneficiary Address performing the token purchase\n     * @param _tokenId Id of token to be emitted\n     */\n    function _deliverTokens(\n        address _beneficiary,\n        uint256 _tokenId\n    )\n    internal\n    {\n        token.safeTransferFrom(address(this), _beneficiary, _tokenId);\n    }\n\n    /**\n   * @dev Executed when a purchase has been validated and is ready to be executed. Not necessarily emits/sends tokens.\n   * @param _beneficiary Address receiving the tokens\n   * @param _tokenId Id of token to be purchased\n   */\n    function _processPurchase(\n        address _beneficiary,\n        uint256 _tokenId\n    )\n    internal\n    {\n        _deliverTokens(_beneficiary, _tokenId);\n    }\n\n    /**\n   * @dev Override for extensions that require an internal state to check for validity (current user contributions, etc.)\n   * @param _beneficiary Address receiving the tokens\n   * @param _weiAmount Value in wei involved in the purchase\n   */\n    function _updatePurchasingState(\n        address _beneficiary,\n        uint256 _weiAmount,\n        uint256 _tokenId\n    )\n    internal\n    {\n        tokens[_tokenId].available = false;\n    }\n\n    /**\n     * @dev Determines how ETH is stored/forwarded on purchases.\n     */\n    function _forwardFunds() internal {\n        wallet.transfer(msg.value);\n    }\n}",
  "sourcePath": "/home/alejandro/workspace/espinlabs/erc721/contracts/crowdsale/CrowdsaleERC721.sol",
  "compiler": {
    "name": "solc",
    "version": "0.4.24+commit.e67f0147.Emscripten.clang"
  },
  "schemaVersion": "2.0.0",
  "updatedAt": "2018-10-05T14:54:51.665Z"
}