{
  "contractName": "CrowdsaleERC721",
  "abi": [
    {
      "constant": true,
      "inputs": [],
      "name": "weiRaised",
      "outputs": [
        {
          "name": "",
          "type": "uint256"
        }
      ],
      "payable": false,
      "stateMutability": "view",
      "type": "function"
    },
    {
      "constant": true,
      "inputs": [],
      "name": "wallet",
      "outputs": [
        {
          "name": "",
          "type": "address"
        }
      ],
      "payable": false,
      "stateMutability": "view",
      "type": "function"
    },
    {
      "constant": false,
      "inputs": [],
      "name": "renounceOwnership",
      "outputs": [],
      "payable": false,
      "stateMutability": "nonpayable",
      "type": "function"
    },
    {
      "constant": true,
      "inputs": [],
      "name": "owner",
      "outputs": [
        {
          "name": "",
          "type": "address"
        }
      ],
      "payable": false,
      "stateMutability": "view",
      "type": "function"
    },
    {
      "constant": false,
      "inputs": [
        {
          "name": "_newOwner",
          "type": "address"
        }
      ],
      "name": "transferOwnership",
      "outputs": [],
      "payable": false,
      "stateMutability": "nonpayable",
      "type": "function"
    },
    {
      "constant": true,
      "inputs": [
        {
          "name": "",
          "type": "uint256"
        }
      ],
      "name": "tokenArray",
      "outputs": [
        {
          "name": "",
          "type": "uint256"
        }
      ],
      "payable": false,
      "stateMutability": "view",
      "type": "function"
    },
    {
      "constant": true,
      "inputs": [],
      "name": "token",
      "outputs": [
        {
          "name": "",
          "type": "address"
        }
      ],
      "payable": false,
      "stateMutability": "view",
      "type": "function"
    },
    {
      "inputs": [
        {
          "name": "_wallet",
          "type": "address"
        },
        {
          "name": "_token",
          "type": "address"
        }
      ],
      "payable": false,
      "stateMutability": "nonpayable",
      "type": "constructor"
    },
    {
      "payable": true,
      "stateMutability": "payable",
      "type": "fallback"
    },
    {
      "anonymous": false,
      "inputs": [
        {
          "indexed": false,
          "name": "tokenId",
          "type": "uint256"
        },
        {
          "indexed": false,
          "name": "name",
          "type": "string"
        },
        {
          "indexed": false,
          "name": "priceWei",
          "type": "uint256"
        }
      ],
      "name": "NewDemoToken",
      "type": "event"
    },
    {
      "anonymous": false,
      "inputs": [
        {
          "indexed": true,
          "name": "purchaser",
          "type": "address"
        },
        {
          "indexed": true,
          "name": "beneficiary",
          "type": "address"
        },
        {
          "indexed": false,
          "name": "value",
          "type": "uint256"
        },
        {
          "indexed": false,
          "name": "_tokenId",
          "type": "uint256"
        }
      ],
      "name": "TokenPurchase",
      "type": "event"
    },
    {
      "anonymous": false,
      "inputs": [
        {
          "indexed": true,
          "name": "previousOwner",
          "type": "address"
        }
      ],
      "name": "OwnershipRenounced",
      "type": "event"
    },
    {
      "anonymous": false,
      "inputs": [
        {
          "indexed": true,
          "name": "previousOwner",
          "type": "address"
        },
        {
          "indexed": true,
          "name": "newOwner",
          "type": "address"
        }
      ],
      "name": "OwnershipTransferred",
      "type": "event"
    },
    {
      "constant": false,
      "inputs": [
        {
          "name": "_tokenId",
          "type": "uint256"
        },
        {
          "name": "_name",
          "type": "string"
        },
        {
          "name": "_priceWei",
          "type": "uint256"
        }
      ],
      "name": "addToken",
      "outputs": [],
      "payable": false,
      "stateMutability": "nonpayable",
      "type": "function"
    },
    {
      "constant": true,
      "inputs": [],
      "name": "getNumberOfTokens",
      "outputs": [
        {
          "name": "",
          "type": "uint256"
        }
      ],
      "payable": false,
      "stateMutability": "view",
      "type": "function"
    },
    {
      "constant": true,
      "inputs": [
        {
          "name": "index",
          "type": "uint256"
        }
      ],
      "name": "getTokenByIndex",
      "outputs": [
        {
          "name": "",
          "type": "uint256"
        },
        {
          "name": "",
          "type": "string"
        },
        {
          "name": "",
          "type": "uint256"
        },
        {
          "name": "",
          "type": "bool"
        }
      ],
      "payable": false,
      "stateMutability": "view",
      "type": "function"
    },
    {
      "constant": false,
      "inputs": [
        {
          "name": "_tokenId",
          "type": "uint256"
        }
      ],
      "name": "buyToken",
      "outputs": [],
      "payable": true,
      "stateMutability": "payable",
      "type": "function"
    }
  ],
  "bytecode": "0x608060405234801561001057600080fd5b50604051604080610bab83398101604052805160209091015160008054600160a060020a03191633179055600160a060020a038216151561005057600080fd5b600160a060020a038116151561006557600080fd5b60028054600160a060020a03938416600160a060020a03199182161790915560018054929093169116179055610b0b806100a06000396000f3006080604052600436106100ae5763ffffffff7c01000000000000000000000000000000000000000000000000000000006000350416632d296bf181146101175780634042b66f14610122578063521eb27314610149578063644b7a431461017a578063715018a6146102205780638da5cb5b14610235578063c847d6c41461024a578063efeecb51146102aa578063f2fde38b146102bf578063faa32f5d146102e0578063fc0c546a146102f8575b604080517f08c379a000000000000000000000000000000000000000000000000000000000815260206004820152601e60248201527f596f75206d75737420737065636966696564206120546f6b656e2049442e0000604482015290519081900360640190fd5b005b61011560043561030d565b34801561012e57600080fd5b506101376103a4565b60408051918252519081900360200190f35b34801561015557600080fd5b5061015e6103aa565b60408051600160a060020a039092168252519081900360200190f35b34801561018657600080fd5b506101926004356103b9565b60408051858152908101839052811515606082015260806020808301828152865192840192909252855160a084019187019080838360005b838110156101e25781810151838201526020016101ca565b50505050905090810190601f16801561020f5780820380516001836020036101000a031916815260200191505b509550505050505060405180910390f35b34801561022c57600080fd5b506101156104aa565b34801561024157600080fd5b5061015e610516565b34801561025657600080fd5b5060408051602060046024803582810135601f810185900485028601850190965285855261011595833595369560449491939091019190819084018382808284375094975050933594506105259350505050565b3480156102b657600080fd5b506101376107e2565b3480156102cb57600080fd5b50610115600160a060020a03600435166107e9565b3480156102ec57600080fd5b5061013760043561080c565b34801561030457600080fd5b5061015e61082b565b333461031a82828561083a565b60035461032d908263ffffffff61089816565b60035561033a82846108ab565b60408051828152602081018590528151600160a060020a0385169233927f623b3804fa71d67900d064613da8f94b9617215ee90799290593e1745087ad18929081900390910190a361038d8282856108b9565b6103956108d6565b61039f82826108b5565b505050565b60035481565b600254600160a060020a031681565b600060606000806000806004878154811015156103d257fe5b6000918252602080832091909101548083526005825260409283902080546002808301546003840154600180860180548a516101009382161593909302600019011694909404601f810189900489028201890190995288815295995093975091959094919360ff90931692918591908301828280156104925780601f1061046757610100808354040283529160200191610492565b820191906000526020600020905b81548152906001019060200180831161047557829003601f168201915b50505050509250955095509550955050509193509193565b600054600160a060020a031633146104c157600080fd5b60008054604051600160a060020a03909116917ff8df31144d9c2f0f6b59d69b8b98abd5459d07f2742c4df920b25aae33c6482091a26000805473ffffffffffffffffffffffffffffffffffffffff19169055565b600054600160a060020a031681565b61052d610a1c565b600054600160a060020a0316331461054457600080fd5b600154604080517f4f558e79000000000000000000000000000000000000000000000000000000008152600481018790529051600160a060020a0390921691634f558e79916024808201926020929091908290030181600087803b1580156105ab57600080fd5b505af11580156105bf573d6000803e3d6000fd5b505050506040513d60208110156105d557600080fd5b505115156105e257600080fd5b600154604080517f6352211e0000000000000000000000000000000000000000000000000000000081526004810187905290513392600160a060020a031691636352211e9160248083019260209291908290030181600087803b15801561064857600080fd5b505af115801561065c573d6000803e3d6000fd5b505050506040513d602081101561067257600080fd5b5051600160a060020a03161461068757600080fd5b50604080516080810182528481526020808201858152828401859052600160608401819052600480548083019091557f8a35acfbc15ff81a39ae7d344fd709f28e8600b4aa8c65c6b64bfe7fe36bd19b0188905560008881526005845294909420835181559051805193948594929361070593918501920190610a47565b506040820151816002015560608201518160030160006101000a81548160ff0219169083151502179055509050507f6dd0270bf62d2e8a369be6882a6117c5e76abb45df23c67e54b98671fb9a04168484846040518084815260200180602001838152602001828103825284818151815260200191508051906020019080838360005b838110156107a0578181015183820152602001610788565b50505050905090810190601f1680156107cd5780820380516001836020036101000a031916815260200191505b5094505050505060405180910390a150505050565b6004545b90565b600054600160a060020a0316331461080057600080fd5b6108098161090f565b50565b600480548290811061081a57fe5b600091825260209091200154905081565b600154600160a060020a031681565b600160a060020a038316151561084f57600080fd5b81151561085b57600080fd5b60008181526005602052604090206003015460ff16151561087b57600080fd5b600081815260056020526040902060020154821461039f57600080fd5b818101828110156108a557fe5b92915050565b6108b5828261098c565b5050565b6000908152600560205260409020600301805460ff191690555050565b600254604051600160a060020a03909116903480156108fc02916000818181858888f19350505050158015610809573d6000803e3d6000fd5b600160a060020a038116151561092457600080fd5b60008054604051600160a060020a03808516939216917f8be0079c531659141344cd1fd0a4f28419497f9722a3daafe3b4186f6b6457e091a36000805473ffffffffffffffffffffffffffffffffffffffff1916600160a060020a0392909216919091179055565b600154604080517f42842e0e000000000000000000000000000000000000000000000000000000008152306004820152600160a060020a03858116602483015260448201859052915191909216916342842e0e91606480830192600092919082900301818387803b158015610a0057600080fd5b505af1158015610a14573d6000803e3d6000fd5b505050505050565b6080604051908101604052806000815260200160608152602001600081526020016000151581525090565b828054600181600116156101000203166002900490600052602060002090601f016020900481019282601f10610a8857805160ff1916838001178555610ab5565b82800160010185558215610ab5579182015b82811115610ab5578251825591602001919060010190610a9a565b50610ac1929150610ac5565b5090565b6107e691905b80821115610ac15760008155600101610acb5600a165627a7a723058208b1aa22f742a884da946b8a6392cec1263e06294d472bfb9f80140b43f76c6bd0029",
  "source": "pragma solidity ^0.4.24;\n\nimport \"../token/DemoToken.sol\";\n\ncontract CrowdsaleERC721 is Ownable{\n\n    using SafeMath for uint256;\n\n    // The token being sold\n    DemoToken public token;\n\n    // Address where funds are collected\n    address public wallet;\n\n    // Amount of wei raised\n    uint256 public weiRaised;\n\n    struct Token {\n        uint256 id;\n        string name;\n        uint256 priceWei;\n        bool available;\n    }\n\n    event NewDemoToken(uint tokenId, string name, uint256 priceWei);\n\n    uint256[] public tokenArray;\n    mapping(uint256 => Token) tokens;\n\n    function addToken(uint256 _tokenId, string _name, uint256 _priceWei) public onlyOwner {\n        require(token.exists(_tokenId));\n        require(token.ownerOf(_tokenId) == msg.sender);\n\n        Token memory _token = Token(_tokenId, _name, _priceWei, true);\n        tokenArray.push(_tokenId);\n        tokens[_tokenId] = _token;\n\n        emit NewDemoToken(_tokenId, _name, _priceWei);\n    }\n\n    function getNumberOfTokens() public view returns (uint256){\n        return tokenArray.length;\n    }\n\n    function getTokenByIndex(uint256 index) public view returns (uint256, string, uint256, bool){\n        uint256 _tokenId = tokenArray[index];\n        Token storage _token = tokens[_tokenId];\n        return (_token.id, _token.name, _token.priceWei, _token.available);\n    }\n\n    /**\n     * Event for token purchase logging\n     * @param purchaser who paid for the tokens\n     * @param beneficiary who got the tokens\n     * @param value weis paid for purchase\n     * @param _tokenId Id of the token purchased\n     */\n    event TokenPurchase(\n        address indexed purchaser,\n        address indexed beneficiary,\n        uint256 value,\n        uint256 _tokenId\n    );\n\n    /**\n     * @param _wallet Address where collected funds will be forwarded to\n     * @param _token Address of the token being sold\n     */\n    constructor(address _wallet, DemoToken _token) public {\n        require(_wallet != address(0));\n        require(_token != address(0));\n\n        wallet = _wallet;\n        token = _token;\n    }\n\n    // -----------------------------------------\n    // Crowdsale external interface\n    // -----------------------------------------\n\n    /**\n     * @dev fallback function ***DO NOT OVERRIDE***\n     */\n    function () external payable {\n        require(\n            false,\n            \"You must specified a Token ID.\"\n        );\n    }\n\n    /**\n   * @dev low level token purchase ***DO NOT OVERRIDE***\n   * @param _tokenId Id of the token being purchased\n   */\n    function buyToken(uint256 _tokenId) public payable {\n\n        address _beneficiary = msg.sender;\n\n        uint256 weiAmount = msg.value;\n        _preValidatePurchase(_beneficiary, weiAmount, _tokenId);\n\n        // update state\n        weiRaised = weiRaised.add(weiAmount);\n\n        _processPurchase(_beneficiary, _tokenId);\n        emit TokenPurchase(\n            msg.sender,\n            _beneficiary,\n            weiAmount,\n            _tokenId\n        );\n\n        _updatePurchasingState(_beneficiary, weiAmount, _tokenId);\n\n        _forwardFunds();\n        _postValidatePurchase(_beneficiary, weiAmount);\n    }\n\n    /**\n     * @dev Validation of an incoming purchase. Use require statements to revert state when conditions are not met. Use `super` in contracts that inherit from Crowdsale to extend their validations.\n     * Example from CappedCrowdsale.sol's _preValidatePurchase method:\n     *   super._preValidatePurchase(_beneficiary, _weiAmount);\n     *   require(weiRaised.add(_weiAmount) <= cap);\n     * @param _beneficiary Address performing the token purchase\n     * @param _weiAmount Value in wei involved in the purchase\n     */\n    function _preValidatePurchase(\n        address _beneficiary,\n        uint256 _weiAmount,\n        uint256 _tokenId\n    )\n    internal\n    {\n        require(_beneficiary != address(0));\n        require(_weiAmount != 0);\n        require(tokens[_tokenId].available);\n        require(tokens[_tokenId].priceWei == _weiAmount);\n    }\n\n    /**\n  * @dev Validation of an executed purchase. Observe state and use revert statements to undo rollback when valid conditions are not met.\n  * @param _beneficiary Address performing the token purchase\n  * @param _weiAmount Value in wei involved in the purchase\n  */\n    function _postValidatePurchase(\n        address _beneficiary,\n        uint256 _weiAmount\n    )\n    internal\n    {\n        // optional override\n    }\n\n    /**\n     * @dev Source of tokens. Override this method to modify the way in which the crowdsale ultimately gets and sends its tokens.\n     * @param _beneficiary Address performing the token purchase\n     * @param _tokenId Id of token to be emitted\n     */\n    function _deliverTokens(\n        address _beneficiary,\n        uint256 _tokenId\n    )\n    internal\n    {\n        token.safeTransferFrom(address(this), _beneficiary, _tokenId);\n    }\n\n    /**\n   * @dev Executed when a purchase has been validated and is ready to be executed. Not necessarily emits/sends tokens.\n   * @param _beneficiary Address receiving the tokens\n   * @param _tokenId Id of token to be purchased\n   */\n    function _processPurchase(\n        address _beneficiary,\n        uint256 _tokenId\n    )\n    internal\n    {\n        _deliverTokens(_beneficiary, _tokenId);\n    }\n\n    /**\n   * @dev Override for extensions that require an internal state to check for validity (current user contributions, etc.)\n   * @param _beneficiary Address receiving the tokens\n   * @param _weiAmount Value in wei involved in the purchase\n   */\n    function _updatePurchasingState(\n        address _beneficiary,\n        uint256 _weiAmount,\n        uint256 _tokenId\n    )\n    internal\n    {\n        tokens[_tokenId].available = false;\n    }\n\n    /**\n     * @dev Determines how ETH is stored/forwarded on purchases.\n     */\n    function _forwardFunds() internal {\n        wallet.transfer(msg.value);\n    }\n}",
  "sourcePath": "/home/alejandro/workspace/espinlabs/erc721/contracts/crowdsale/CrowdsaleERC721.sol",
  "compiler": {
    "name": "solc",
    "version": "0.4.24+commit.e67f0147.Emscripten.clang"
  },
  "schemaVersion": "2.0.0",
  "updatedAt": "2018-10-08T02:29:43.042Z"
}