{
  "contractName": "DemoToken",
  "abi": [
    {
      "constant": true,
      "inputs": [
        {
          "name": "_interfaceId",
          "type": "bytes4"
        }
      ],
      "name": "supportsInterface",
      "outputs": [
        {
          "name": "",
          "type": "bool"
        }
      ],
      "payable": false,
      "stateMutability": "view",
      "type": "function"
    },
    {
      "constant": true,
      "inputs": [],
      "name": "mintingFinished",
      "outputs": [
        {
          "name": "",
          "type": "bool"
        }
      ],
      "payable": false,
      "stateMutability": "view",
      "type": "function"
    },
    {
      "constant": true,
      "inputs": [],
      "name": "name",
      "outputs": [
        {
          "name": "",
          "type": "string"
        }
      ],
      "payable": false,
      "stateMutability": "view",
      "type": "function"
    },
    {
      "constant": true,
      "inputs": [
        {
          "name": "_tokenId",
          "type": "uint256"
        }
      ],
      "name": "getApproved",
      "outputs": [
        {
          "name": "",
          "type": "address"
        }
      ],
      "payable": false,
      "stateMutability": "view",
      "type": "function"
    },
    {
      "constant": false,
      "inputs": [
        {
          "name": "_to",
          "type": "address"
        },
        {
          "name": "_tokenId",
          "type": "uint256"
        }
      ],
      "name": "approve",
      "outputs": [],
      "payable": false,
      "stateMutability": "nonpayable",
      "type": "function"
    },
    {
      "constant": true,
      "inputs": [],
      "name": "totalSupply",
      "outputs": [
        {
          "name": "",
          "type": "uint256"
        }
      ],
      "payable": false,
      "stateMutability": "view",
      "type": "function"
    },
    {
      "constant": true,
      "inputs": [],
      "name": "InterfaceId_ERC165",
      "outputs": [
        {
          "name": "",
          "type": "bytes4"
        }
      ],
      "payable": false,
      "stateMutability": "view",
      "type": "function"
    },
    {
      "constant": false,
      "inputs": [
        {
          "name": "_from",
          "type": "address"
        },
        {
          "name": "_to",
          "type": "address"
        },
        {
          "name": "_tokenId",
          "type": "uint256"
        }
      ],
      "name": "transferFrom",
      "outputs": [],
      "payable": false,
      "stateMutability": "nonpayable",
      "type": "function"
    },
    {
      "constant": true,
      "inputs": [
        {
          "name": "_owner",
          "type": "address"
        },
        {
          "name": "_index",
          "type": "uint256"
        }
      ],
      "name": "tokenOfOwnerByIndex",
      "outputs": [
        {
          "name": "",
          "type": "uint256"
        }
      ],
      "payable": false,
      "stateMutability": "view",
      "type": "function"
    },
    {
      "constant": false,
      "inputs": [
        {
          "name": "_from",
          "type": "address"
        },
        {
          "name": "_to",
          "type": "address"
        },
        {
          "name": "_tokenId",
          "type": "uint256"
        }
      ],
      "name": "safeTransferFrom",
      "outputs": [],
      "payable": false,
      "stateMutability": "nonpayable",
      "type": "function"
    },
    {
      "constant": true,
      "inputs": [
        {
          "name": "_tokenId",
          "type": "uint256"
        }
      ],
      "name": "exists",
      "outputs": [
        {
          "name": "",
          "type": "bool"
        }
      ],
      "payable": false,
      "stateMutability": "view",
      "type": "function"
    },
    {
      "constant": true,
      "inputs": [
        {
          "name": "_index",
          "type": "uint256"
        }
      ],
      "name": "tokenByIndex",
      "outputs": [
        {
          "name": "",
          "type": "uint256"
        }
      ],
      "payable": false,
      "stateMutability": "view",
      "type": "function"
    },
    {
      "constant": true,
      "inputs": [
        {
          "name": "_tokenId",
          "type": "uint256"
        }
      ],
      "name": "ownerOf",
      "outputs": [
        {
          "name": "",
          "type": "address"
        }
      ],
      "payable": false,
      "stateMutability": "view",
      "type": "function"
    },
    {
      "constant": true,
      "inputs": [
        {
          "name": "_owner",
          "type": "address"
        }
      ],
      "name": "balanceOf",
      "outputs": [
        {
          "name": "",
          "type": "uint256"
        }
      ],
      "payable": false,
      "stateMutability": "view",
      "type": "function"
    },
    {
      "constant": false,
      "inputs": [],
      "name": "renounceOwnership",
      "outputs": [],
      "payable": false,
      "stateMutability": "nonpayable",
      "type": "function"
    },
    {
      "constant": false,
      "inputs": [],
      "name": "finishMinting",
      "outputs": [
        {
          "name": "",
          "type": "bool"
        }
      ],
      "payable": false,
      "stateMutability": "nonpayable",
      "type": "function"
    },
    {
      "constant": true,
      "inputs": [],
      "name": "owner",
      "outputs": [
        {
          "name": "",
          "type": "address"
        }
      ],
      "payable": false,
      "stateMutability": "view",
      "type": "function"
    },
    {
      "constant": true,
      "inputs": [],
      "name": "symbol",
      "outputs": [
        {
          "name": "",
          "type": "string"
        }
      ],
      "payable": false,
      "stateMutability": "view",
      "type": "function"
    },
    {
      "constant": false,
      "inputs": [
        {
          "name": "_to",
          "type": "address"
        },
        {
          "name": "_approved",
          "type": "bool"
        }
      ],
      "name": "setApprovalForAll",
      "outputs": [],
      "payable": false,
      "stateMutability": "nonpayable",
      "type": "function"
    },
    {
      "constant": false,
      "inputs": [
        {
          "name": "_from",
          "type": "address"
        },
        {
          "name": "_to",
          "type": "address"
        },
        {
          "name": "_tokenId",
          "type": "uint256"
        },
        {
          "name": "_data",
          "type": "bytes"
        }
      ],
      "name": "safeTransferFrom",
      "outputs": [],
      "payable": false,
      "stateMutability": "nonpayable",
      "type": "function"
    },
    {
      "constant": true,
      "inputs": [
        {
          "name": "_tokenId",
          "type": "uint256"
        }
      ],
      "name": "tokenURI",
      "outputs": [
        {
          "name": "",
          "type": "string"
        }
      ],
      "payable": false,
      "stateMutability": "view",
      "type": "function"
    },
    {
      "constant": true,
      "inputs": [
        {
          "name": "_owner",
          "type": "address"
        },
        {
          "name": "_operator",
          "type": "address"
        }
      ],
      "name": "isApprovedForAll",
      "outputs": [
        {
          "name": "",
          "type": "bool"
        }
      ],
      "payable": false,
      "stateMutability": "view",
      "type": "function"
    },
    {
      "constant": false,
      "inputs": [
        {
          "name": "_newOwner",
          "type": "address"
        }
      ],
      "name": "transferOwnership",
      "outputs": [],
      "payable": false,
      "stateMutability": "nonpayable",
      "type": "function"
    },
    {
      "inputs": [
        {
          "name": "_name",
          "type": "string"
        },
        {
          "name": "_symbol",
          "type": "string"
        }
      ],
      "payable": false,
      "stateMutability": "nonpayable",
      "type": "constructor"
    },
    {
      "anonymous": false,
      "inputs": [
        {
          "indexed": true,
          "name": "to",
          "type": "address"
        },
        {
          "indexed": false,
          "name": "tokenId",
          "type": "uint256"
        }
      ],
      "name": "Mint",
      "type": "event"
    },
    {
      "anonymous": false,
      "inputs": [],
      "name": "MintFinished",
      "type": "event"
    },
    {
      "anonymous": false,
      "inputs": [
        {
          "indexed": true,
          "name": "previousOwner",
          "type": "address"
        }
      ],
      "name": "OwnershipRenounced",
      "type": "event"
    },
    {
      "anonymous": false,
      "inputs": [
        {
          "indexed": true,
          "name": "previousOwner",
          "type": "address"
        },
        {
          "indexed": true,
          "name": "newOwner",
          "type": "address"
        }
      ],
      "name": "OwnershipTransferred",
      "type": "event"
    },
    {
      "anonymous": false,
      "inputs": [
        {
          "indexed": true,
          "name": "_from",
          "type": "address"
        },
        {
          "indexed": true,
          "name": "_to",
          "type": "address"
        },
        {
          "indexed": true,
          "name": "_tokenId",
          "type": "uint256"
        }
      ],
      "name": "Transfer",
      "type": "event"
    },
    {
      "anonymous": false,
      "inputs": [
        {
          "indexed": true,
          "name": "_owner",
          "type": "address"
        },
        {
          "indexed": true,
          "name": "_approved",
          "type": "address"
        },
        {
          "indexed": true,
          "name": "_tokenId",
          "type": "uint256"
        }
      ],
      "name": "Approval",
      "type": "event"
    },
    {
      "anonymous": false,
      "inputs": [
        {
          "indexed": true,
          "name": "_owner",
          "type": "address"
        },
        {
          "indexed": true,
          "name": "_operator",
          "type": "address"
        },
        {
          "indexed": false,
          "name": "_approved",
          "type": "bool"
        }
      ],
      "name": "ApprovalForAll",
      "type": "event"
    },
    {
      "constant": false,
      "inputs": [
        {
          "name": "uri",
          "type": "string"
        }
      ],
      "name": "mint",
      "outputs": [
        {
          "name": "",
          "type": "uint256"
        }
      ],
      "payable": false,
      "stateMutability": "nonpayable",
      "type": "function"
    },
    {
      "constant": true,
      "inputs": [
        {
          "name": "_owner",
          "type": "address"
        }
      ],
      "name": "tokensOfOwner",
      "outputs": [
        {
          "name": "",
          "type": "uint256[]"
        }
      ],
      "payable": false,
      "stateMutability": "view",
      "type": "function"
    }
  ],
  "bytecode": "0x6080604052600c805460a060020a60ff02191690556001600d553480156200002657600080fd5b506040516200177b3803806200177b8339810160405280516020820151908201910181816200007e7f01ffc9a70000000000000000000000000000000000000000000000000000000064010000000062000197810204565b620000b27f80ac58cd0000000000000000000000000000000000000000000000000000000064010000000062000197810204565b620000e67f4f558e790000000000000000000000000000000000000000000000000000000064010000000062000197810204565b8151620000fb90600590602085019062000204565b5080516200011190600690602084019062000204565b50620001467f780e9d630000000000000000000000000000000000000000000000000000000064010000000062000197810204565b6200017a7f5b5e139f0000000000000000000000000000000000000000000000000000000064010000000062000197810204565b5050600c8054600160a060020a0319163317905550620002a99050565b7fffffffff000000000000000000000000000000000000000000000000000000008082161415620001c757600080fd5b7fffffffff00000000000000000000000000000000000000000000000000000000166000908152602081905260409020805460ff19166001179055565b828054600181600116156101000203166002900490600052602060002090601f016020900481019282601f106200024757805160ff191683800117855562000277565b8280016001018555821562000277579182015b82811115620002775782518255916020019190600101906200025a565b506200028592915062000289565b5090565b620002a691905b8082111562000285576000815560010162000290565b90565b6114c280620002b96000396000f3006080604052600436106101485763ffffffff7c010000000000000000000000000000000000000000000000000000000060003504166301ffc9a7811461014d57806305d2035b1461018357806306fdde0314610198578063081812fc14610222578063095ea7b31461025657806318160ddd1461027c57806319fa8f50146102a357806323b872dd146102d55780632f745c59146102ff57806342842e0e146103235780634f558e791461034d5780634f6ccce7146103655780636352211e1461037d57806370a0823114610395578063715018a6146103b65780637d64bcb4146103cb5780638462151c146103e05780638da5cb5b1461045157806395d89b4114610466578063a22cb4651461047b578063b88d4fde146104a1578063c87b56dd14610510578063d85d3d2714610528578063e985e9c514610581578063f2fde38b146105a8575b600080fd5b34801561015957600080fd5b5061016f600160e060020a0319600435166105c9565b604080519115158252519081900360200190f35b34801561018f57600080fd5b5061016f6105e8565b3480156101a457600080fd5b506101ad610609565b6040805160208082528351818301528351919283929083019185019080838360005b838110156101e75781810151838201526020016101cf565b50505050905090810190601f1680156102145780820380516001836020036101000a031916815260200191505b509250505060405180910390f35b34801561022e57600080fd5b5061023a6004356106a0565b60408051600160a060020a039092168252519081900360200190f35b34801561026257600080fd5b5061027a600160a060020a03600435166024356106bb565b005b34801561028857600080fd5b50610291610771565b60408051918252519081900360200190f35b3480156102af57600080fd5b506102b8610777565b60408051600160e060020a03199092168252519081900360200190f35b3480156102e157600080fd5b5061027a600160a060020a036004358116906024351660443561079b565b34801561030b57600080fd5b50610291600160a060020a036004351660243561083e565b34801561032f57600080fd5b5061027a600160a060020a036004358116906024351660443561088b565b34801561035957600080fd5b5061016f6004356108ac565b34801561037157600080fd5b506102916004356108c9565b34801561038957600080fd5b5061023a6004356108fe565b3480156103a157600080fd5b50610291600160a060020a0360043516610928565b3480156103c257600080fd5b5061027a61095b565b3480156103d757600080fd5b5061016f6109c9565b3480156103ec57600080fd5b50610401600160a060020a0360043516610a6f565b60408051602080825283518183015283519192839290830191858101910280838360005b8381101561043d578181015183820152602001610425565b505050509050019250505060405180910390f35b34801561045d57600080fd5b5061023a610adb565b34801561047257600080fd5b506101ad610aea565b34801561048757600080fd5b5061027a600160a060020a03600435166024351515610b4b565b3480156104ad57600080fd5b50604080516020601f60643560048181013592830184900484028501840190955281845261027a94600160a060020a038135811695602480359092169560443595369560849401918190840183828082843750949750610bcf9650505050505050565b34801561051c57600080fd5b506101ad600435610bf7565b34801561053457600080fd5b506040805160206004803580820135601f8101849004840285018401909552848452610291943694929360249392840191908190840183828082843750949750610ca29650505050505050565b34801561058d57600080fd5b5061016f600160a060020a0360043581169060243516610d54565b3480156105b457600080fd5b5061027a600160a060020a0360043516610d82565b600160e060020a03191660009081526020819052604090205460ff1690565b600c5474010000000000000000000000000000000000000000900460ff1681565b60058054604080516020601f60026000196101006001881615020190951694909404938401819004810282018101909252828152606093909290918301828280156106955780601f1061066a57610100808354040283529160200191610695565b820191906000526020600020905b81548152906001019060200180831161067857829003601f168201915b505050505090505b90565b600090815260026020526040902054600160a060020a031690565b60006106c6826108fe565b9050600160a060020a0383811690821614156106e157600080fd5b33600160a060020a03821614806106fd57506106fd8133610d54565b151561070857600080fd5b600082815260026020526040808220805473ffffffffffffffffffffffffffffffffffffffff1916600160a060020a0387811691821790925591518593918516917f8c5be1e5ebec7d5bd14f71427d1e84f3dd0314c0f7b2291e5b200ac8c7c3b92591a4505050565b60095490565b7f01ffc9a70000000000000000000000000000000000000000000000000000000081565b6107a53382610da5565b15156107b057600080fd5b600160a060020a03831615156107c557600080fd5b600160a060020a03821615156107da57600080fd5b6107e48382610e04565b6107ee8382610e75565b6107f88282610f7c565b8082600160a060020a031684600160a060020a03167fddf252ad1be2c89b69c2b068fc378daa952ba7f163c4a11628f55a4df523b3ef60405160405180910390a4505050565b600061084983610928565b821061085457600080fd5b600160a060020a038316600090815260076020526040902080548390811061087857fe5b9060005260206000200154905092915050565b6108a78383836020604051908101604052806000815250610bcf565b505050565b600090815260016020526040902054600160a060020a0316151590565b60006108d3610771565b82106108de57600080fd5b60098054839081106108ec57fe5b90600052602060002001549050919050565b600081815260016020526040812054600160a060020a031680151561092257600080fd5b92915050565b6000600160a060020a038216151561093f57600080fd5b50600160a060020a031660009081526003602052604090205490565b600c54600160a060020a0316331461097257600080fd5b600c54604051600160a060020a03909116907ff8df31144d9c2f0f6b59d69b8b98abd5459d07f2742c4df920b25aae33c6482090600090a2600c805473ffffffffffffffffffffffffffffffffffffffff19169055565b600c54600090600160a060020a031633146109e357600080fd5b600c5474010000000000000000000000000000000000000000900460ff1615610a0b57600080fd5b600c805474ff00000000000000000000000000000000000000001916740100000000000000000000000000000000000000001790556040517fae5184fba832cb2b1f702aca6117b8d265eaf03ad33eb133f19dde0f5920fa0890600090a150600190565b600160a060020a038116600090815260076020908152604091829020805483518184028101840190945280845260609392830182828015610acf57602002820191906000526020600020905b815481526020019060010190808311610abb575b50505050509050919050565b600c54600160a060020a031681565b60068054604080516020601f60026000196101006001881615020190951694909404938401819004810282018101909252828152606093909290918301828280156106955780601f1061066a57610100808354040283529160200191610695565b600160a060020a038216331415610b6157600080fd5b336000818152600460209081526040808320600160a060020a03871680855290835292819020805460ff1916861515908117909155815190815290519293927f17307eab39ab6107e8899845ad3d59bd9653f200f220920489ca2b5937696c31929181900390910190a35050565b610bda84848461079b565b610be684848484610fc5565b1515610bf157600080fd5b50505050565b6060610c02826108ac565b1515610c0d57600080fd5b6000828152600b602090815260409182902080548351601f600260001961010060018616150201909316929092049182018490048402810184019094528084529091830182828015610acf5780601f10610c7557610100808354040283529160200191610acf565b820191906000526020600020905b815481529060010190602001808311610c835750939695505050505050565b600c54600090600160a060020a03163314610cbc57600080fd5b600c5474010000000000000000000000000000000000000000900460ff1615610ce457600080fd5b600d54610cf890600163ffffffff61113216565b600d819055610d0890339061113f565b610d14600d548361118e565b600d54604080519182525133917f0f6798a560793a54c3bcfe86a93cde1e73087d944c0ea20544137d4121396885919081900360200190a25050600d5490565b600160a060020a03918216600090815260046020908152604080832093909416825291909152205460ff1690565b600c54600160a060020a03163314610d9957600080fd5b610da2816111c1565b50565b600080610db1836108fe565b905080600160a060020a031684600160a060020a03161480610dec575083600160a060020a0316610de1846106a0565b600160a060020a0316145b80610dfc5750610dfc8185610d54565b949350505050565b81600160a060020a0316610e17826108fe565b600160a060020a031614610e2a57600080fd5b600081815260026020526040902054600160a060020a031615610e71576000818152600260205260409020805473ffffffffffffffffffffffffffffffffffffffff191690555b5050565b6000806000610e84858561123f565b600084815260086020908152604080832054600160a060020a0389168452600790925290912054909350610ebf90600163ffffffff6112d516565b600160a060020a038616600090815260076020526040902080549193509083908110610ee757fe5b90600052602060002001549050806007600087600160a060020a0316600160a060020a0316815260200190815260200160002084815481101515610f2757fe5b6000918252602080832090910192909255600160a060020a0387168152600790915260409020805490610f5e9060001983016113da565b50600093845260086020526040808520859055908452909220555050565b6000610f8883836112e7565b50600160a060020a039091166000908152600760209081526040808320805460018101825590845282842081018590559383526008909152902055565b600080610fda85600160a060020a0316611377565b1515610fe95760019150611129565b6040517f150b7a020000000000000000000000000000000000000000000000000000000081523360048201818152600160a060020a03898116602485015260448401889052608060648501908152875160848601528751918a169463150b7a0294938c938b938b93909160a490910190602085019080838360005b8381101561107c578181015183820152602001611064565b50505050905090810190601f1680156110a95780820380516001836020036101000a031916815260200191505b5095505050505050602060405180830381600087803b1580156110cb57600080fd5b505af11580156110df573d6000803e3d6000fd5b505050506040513d60208110156110f557600080fd5b5051600160e060020a031981167f150b7a020000000000000000000000000000000000000000000000000000000014925090505b50949350505050565b8181018281101561092257fe5b611149828261137f565b600980546000838152600a60205260408120829055600182018355919091527f6e1540171b6c0c960b71a7020d9f60077f6af931a8bbf590da0223dacf75c7af015550565b611197826108ac565b15156111a257600080fd5b6000828152600b6020908152604090912082516108a7928401906113fe565b600160a060020a03811615156111d657600080fd5b600c54604051600160a060020a038084169216907f8be0079c531659141344cd1fd0a4f28419497f9722a3daafe3b4186f6b6457e090600090a3600c805473ffffffffffffffffffffffffffffffffffffffff1916600160a060020a0392909216919091179055565b81600160a060020a0316611252826108fe565b600160a060020a03161461126557600080fd5b600160a060020a03821660009081526003602052604090205461128f90600163ffffffff6112d516565b600160a060020a03909216600090815260036020908152604080832094909455918152600190915220805473ffffffffffffffffffffffffffffffffffffffff19169055565b6000828211156112e157fe5b50900390565b600081815260016020526040902054600160a060020a03161561130957600080fd5b6000818152600160208181526040808420805473ffffffffffffffffffffffffffffffffffffffff1916600160a060020a038816908117909155845260039091529091205461135791611132565b600160a060020a0390921660009081526003602052604090209190915550565b6000903b1190565b600160a060020a038216151561139457600080fd5b61139e8282610f7c565b6040518190600160a060020a038416906000907fddf252ad1be2c89b69c2b068fc378daa952ba7f163c4a11628f55a4df523b3ef908290a45050565b8154818355818111156108a7576000838152602090206108a791810190830161147c565b828054600181600116156101000203166002900490600052602060002090601f016020900481019282601f1061143f57805160ff191683800117855561146c565b8280016001018555821561146c579182015b8281111561146c578251825591602001919060010190611451565b5061147892915061147c565b5090565b61069d91905b8082111561147857600081556001016114825600a165627a7a723058208f963242073bb6c3dbc3ceac635ac129a572393bf280b17fa83e4bd51de6c47c0029",
  "source": "pragma solidity ^0.4.24;\n\nimport \"zeppelin-solidity/contracts/ownership/Ownable.sol\";\nimport \"./MintableTokenERC721.sol\";\n\ncontract DemoToken is MintableTokenERC721{\n\n    uint256 lastId = 1 ** 5;\n\n    constructor(string _name, string _symbol)\n    ERC721Token(_name, _symbol)\n    public {\n    }\n\n    function mint(string uri)\n    public\n    hasMintPermission\n    canMint\n    returns (uint256)\n    {\n        lastId = lastId.add(1);\n        super._mint(msg.sender, lastId);\n        _setTokenURI(lastId, uri);\n        emit Mint(msg.sender, lastId);\n        return lastId;\n    }\n\n    function tokensOfOwner(address _owner)\n    public\n    view\n    returns (uint256[])\n    {\n        return ownedTokens[_owner];\n    }\n}",
  "sourcePath": "/home/alejandro/workspace/espinlabs/erc721/contracts/token/DemoToken.sol",
  "compiler": {
    "name": "solc",
    "version": "0.4.24+commit.e67f0147.Emscripten.clang"
  },
  "schemaVersion": "2.0.0",
  "updatedAt": "2018-10-08T12:53:50.568Z"
}