{
  "contractName": "DemoCrowdsale",
  "abi": [
    {
      "constant": true,
      "inputs": [],
      "name": "hasClosed",
      "outputs": [
        {
          "name": "",
          "type": "bool"
        }
      ],
      "payable": false,
      "stateMutability": "view",
      "type": "function"
    },
    {
      "constant": false,
      "inputs": [
        {
          "name": "_tokenId",
          "type": "uint256"
        }
      ],
      "name": "buyToken",
      "outputs": [],
      "payable": true,
      "stateMutability": "payable",
      "type": "function"
    },
    {
      "constant": true,
      "inputs": [],
      "name": "weiRaised",
      "outputs": [
        {
          "name": "",
          "type": "uint256"
        }
      ],
      "payable": false,
      "stateMutability": "view",
      "type": "function"
    },
    {
      "constant": true,
      "inputs": [],
      "name": "closingTime",
      "outputs": [
        {
          "name": "",
          "type": "uint256"
        }
      ],
      "payable": false,
      "stateMutability": "view",
      "type": "function"
    },
    {
      "constant": true,
      "inputs": [],
      "name": "wallet",
      "outputs": [
        {
          "name": "",
          "type": "address"
        }
      ],
      "payable": false,
      "stateMutability": "view",
      "type": "function"
    },
    {
      "constant": true,
      "inputs": [
        {
          "name": "index",
          "type": "uint256"
        }
      ],
      "name": "getTokenByIndex",
      "outputs": [
        {
          "name": "",
          "type": "uint256"
        },
        {
          "name": "",
          "type": "string"
        },
        {
          "name": "",
          "type": "uint256"
        },
        {
          "name": "",
          "type": "bool"
        }
      ],
      "payable": false,
      "stateMutability": "view",
      "type": "function"
    },
    {
      "constant": false,
      "inputs": [],
      "name": "renounceOwnership",
      "outputs": [],
      "payable": false,
      "stateMutability": "nonpayable",
      "type": "function"
    },
    {
      "constant": false,
      "inputs": [],
      "name": "withdrawTokens",
      "outputs": [],
      "payable": false,
      "stateMutability": "nonpayable",
      "type": "function"
    },
    {
      "constant": true,
      "inputs": [],
      "name": "owner",
      "outputs": [
        {
          "name": "",
          "type": "address"
        }
      ],
      "payable": false,
      "stateMutability": "view",
      "type": "function"
    },
    {
      "constant": true,
      "inputs": [],
      "name": "released",
      "outputs": [
        {
          "name": "",
          "type": "bool"
        }
      ],
      "payable": false,
      "stateMutability": "view",
      "type": "function"
    },
    {
      "constant": true,
      "inputs": [],
      "name": "openingTime",
      "outputs": [
        {
          "name": "",
          "type": "uint256"
        }
      ],
      "payable": false,
      "stateMutability": "view",
      "type": "function"
    },
    {
      "constant": false,
      "inputs": [
        {
          "name": "_tokenId",
          "type": "uint256"
        },
        {
          "name": "_name",
          "type": "string"
        },
        {
          "name": "_priceWei",
          "type": "uint256"
        }
      ],
      "name": "addToken",
      "outputs": [],
      "payable": false,
      "stateMutability": "nonpayable",
      "type": "function"
    },
    {
      "constant": true,
      "inputs": [
        {
          "name": "",
          "type": "address"
        },
        {
          "name": "",
          "type": "uint256"
        }
      ],
      "name": "balances",
      "outputs": [
        {
          "name": "",
          "type": "uint256"
        }
      ],
      "payable": false,
      "stateMutability": "view",
      "type": "function"
    },
    {
      "constant": true,
      "inputs": [],
      "name": "getNumberOfTokens",
      "outputs": [
        {
          "name": "",
          "type": "uint256"
        }
      ],
      "payable": false,
      "stateMutability": "view",
      "type": "function"
    },
    {
      "constant": false,
      "inputs": [
        {
          "name": "_newOwner",
          "type": "address"
        }
      ],
      "name": "transferOwnership",
      "outputs": [],
      "payable": false,
      "stateMutability": "nonpayable",
      "type": "function"
    },
    {
      "constant": true,
      "inputs": [
        {
          "name": "",
          "type": "uint256"
        }
      ],
      "name": "tokenArray",
      "outputs": [
        {
          "name": "",
          "type": "uint256"
        }
      ],
      "payable": false,
      "stateMutability": "view",
      "type": "function"
    },
    {
      "constant": true,
      "inputs": [],
      "name": "token",
      "outputs": [
        {
          "name": "",
          "type": "address"
        }
      ],
      "payable": false,
      "stateMutability": "view",
      "type": "function"
    },
    {
      "inputs": [
        {
          "name": "wallet",
          "type": "address"
        },
        {
          "name": "token",
          "type": "address"
        },
        {
          "name": "_openingTime",
          "type": "uint256"
        },
        {
          "name": "_closingTime",
          "type": "uint256"
        }
      ],
      "payable": false,
      "stateMutability": "nonpayable",
      "type": "constructor"
    },
    {
      "payable": true,
      "stateMutability": "payable",
      "type": "fallback"
    },
    {
      "anonymous": false,
      "inputs": [
        {
          "indexed": false,
          "name": "to",
          "type": "address"
        },
        {
          "indexed": false,
          "name": "tokenId",
          "type": "uint256"
        }
      ],
      "name": "TokenDelivered",
      "type": "event"
    },
    {
      "anonymous": false,
      "inputs": [
        {
          "indexed": false,
          "name": "tokenId",
          "type": "uint256"
        },
        {
          "indexed": false,
          "name": "name",
          "type": "string"
        },
        {
          "indexed": false,
          "name": "priceWei",
          "type": "uint256"
        }
      ],
      "name": "NewDemoToken",
      "type": "event"
    },
    {
      "anonymous": false,
      "inputs": [
        {
          "indexed": true,
          "name": "purchaser",
          "type": "address"
        },
        {
          "indexed": true,
          "name": "beneficiary",
          "type": "address"
        },
        {
          "indexed": false,
          "name": "value",
          "type": "uint256"
        },
        {
          "indexed": false,
          "name": "_tokenId",
          "type": "uint256"
        }
      ],
      "name": "TokenPurchase",
      "type": "event"
    },
    {
      "anonymous": false,
      "inputs": [
        {
          "indexed": true,
          "name": "previousOwner",
          "type": "address"
        }
      ],
      "name": "OwnershipRenounced",
      "type": "event"
    },
    {
      "anonymous": false,
      "inputs": [
        {
          "indexed": true,
          "name": "previousOwner",
          "type": "address"
        },
        {
          "indexed": true,
          "name": "newOwner",
          "type": "address"
        }
      ],
      "name": "OwnershipTransferred",
      "type": "event"
    },
    {
      "constant": false,
      "inputs": [
        {
          "name": "_operator",
          "type": "address"
        },
        {
          "name": "_from",
          "type": "address"
        },
        {
          "name": "_tokenId",
          "type": "uint256"
        },
        {
          "name": "_data",
          "type": "bytes"
        }
      ],
      "name": "onERC721Received",
      "outputs": [
        {
          "name": "",
          "type": "bytes4"
        }
      ],
      "payable": false,
      "stateMutability": "nonpayable",
      "type": "function"
    },
    {
      "constant": false,
      "inputs": [
        {
          "name": "tokenId",
          "type": "uint256"
        },
        {
          "name": "beneficiary",
          "type": "address"
        }
      ],
      "name": "sellToken",
      "outputs": [],
      "payable": false,
      "stateMutability": "nonpayable",
      "type": "function"
    }
  ],
  "bytecode": "0x6080604052600a805460ff1916905534801561001a57600080fd5b506040516080806111d9833981016040908152815160208301519183015160609093015160008054600160a060020a0319163317905590929081818585600160a060020a038216151561006c57600080fd5b600160a060020a038116151561008157600080fd5b60028054600160a060020a03938416600160a060020a03199182161790915560018054929093169116179055428210156100ba57600080fd5b818110156100c757600080fd5b600691909155600755505050506110f6806100e36000396000f3006080604052600436106101065763ffffffff7c0100000000000000000000000000000000000000000000000000000000600035041663150b7a02811461016f5780631515bc2b146102135780632d296bf11461023c5780634042b66f146102475780634b6753bc1461026e578063521eb27314610283578063644b7a43146102b4578063715018a61461035a5780638d8f2adb1461036f5780638da5cb5b146103845780639613252114610399578063b7a8807c146103ae578063c847d6c4146103c3578063cbf1304d14610423578063dd4549b714610447578063efeecb511461046b578063f2fde38b14610480578063faa32f5d146104a1578063fc0c546a146104b9575b604080517f08c379a000000000000000000000000000000000000000000000000000000000815260206004820152601e60248201527f596f75206d75737420737065636966696564206120546f6b656e2049442e0000604482015290519081900360640190fd5b005b34801561017b57600080fd5b50604080516020601f6064356004818101359283018490048402850184019095528184526101de94600160a060020a0381358116956024803590921695604435953695608494019181908401838280828437509497506104ce9650505050505050565b604080517fffffffff000000000000000000000000000000000000000000000000000000009092168252519081900360200190f35b34801561021f57600080fd5b506102286104f7565b604080519115158252519081900360200190f35b61016d600435610500565b34801561025357600080fd5b5061025c610597565b60408051918252519081900360200190f35b34801561027a57600080fd5b5061025c61059d565b34801561028f57600080fd5b506102986105a3565b60408051600160a060020a039092168252519081900360200190f35b3480156102c057600080fd5b506102cc6004356105b2565b60408051858152908101839052811515606082015260806020808301828152865192840192909252855160a084019187019080838360005b8381101561031c578181015183820152602001610304565b50505050905090810190601f1680156103495780820380516001836020036101000a031916815260200191505b509550505050505060405180910390f35b34801561036657600080fd5b5061016d6106a3565b34801561037b57600080fd5b5061016d61070f565b34801561039057600080fd5b50610298610954565b3480156103a557600080fd5b50610228610963565b3480156103ba57600080fd5b5061025c61096c565b3480156103cf57600080fd5b5060408051602060046024803582810135601f810185900485028601850190965285855261016d95833595369560449491939091019190819084018382808284375094975050933594506109729350505050565b34801561042f57600080fd5b5061025c600160a060020a0360043516602435610c2f565b34801561045357600080fd5b5061016d600435600160a060020a0360243516610c5f565b34801561047757600080fd5b5061025c610d0e565b34801561048c57600080fd5b5061016d600160a060020a0360043516610d14565b3480156104ad57600080fd5b5061025c600435610d37565b3480156104c557600080fd5b50610298610d56565b7f150b7a0200000000000000000000000000000000000000000000000000000000949350505050565b60075442115b90565b333461050d828285610d65565b600354610520908263ffffffff610d8f16565b60035561052d8284610da2565b60408051828152602081018590528151600160a060020a0385169233927f623b3804fa71d67900d064613da8f94b9617215ee90799290593e1745087ad18929081900390910190a3610580828285610e46565b610588610e63565b6105928282610d0a565b505050565b60035481565b60075481565b600254600160a060020a031681565b600060606000806000806004878154811015156105cb57fe5b6000918252602080832091909101548083526005825260409283902080546002808301546003840154600180860180548a516101009382161593909302600019011694909404601f810189900489028201890190995288815295995093975091959094919360ff909316929185919083018282801561068b5780601f106106605761010080835404028352916020019161068b565b820191906000526020600020905b81548152906001019060200180831161066e57829003601f168201915b50505050509250955095509550955050509193509193565b600054600160a060020a031633146106ba57600080fd5b60008054604051600160a060020a03909116917ff8df31144d9c2f0f6b59d69b8b98abd5459d07f2742c4df920b25aae33c6482091a26000805473ffffffffffffffffffffffffffffffffffffffff19169055565b6000805481908190600160a060020a0316331461072b57600080fd5b6107336104f7565b15156107a057604080517f08c379a000000000000000000000000000000000000000000000000000000000815260206004820152601d60248201527f456c2043726f776473616c65206e6f20657374c3a1206365727261646f000000604482015290519081900360640190fd5b600a5460ff161561081257604080517f08c379a000000000000000000000000000000000000000000000000000000000815260206004820152601e60248201527f4c6f7320746f6b656e7320796120667565726f6e206c6962657261646f730000604482015290519081900360640190fd5b600092505b600954831015610942576008600060098581548110151561083457fe5b6000918252602080832090910154600160a060020a031683528201929092526040018120925090505b8154811015610937576108ae60098481548110151561087857fe5b6000918252602090912001548354600160a060020a039091169084908490811061089e57fe5b9060005260206000200154610e9c565b7f06fd92518610d6cbeff50af5cfc376de1de0809bc0d255140eb20715f25af9516009848154811015156108de57fe5b6000918252602090912001548354600160a060020a039091169084908490811061090457fe5b6000918252602091829020015460408051600160a060020a039094168452918301528051918290030190a160010161085d565b600190920191610817565b5050600a805460ff1916600117905550565b600054600160a060020a031681565b600a5460ff1681565b60065481565b61097a611007565b600054600160a060020a0316331461099157600080fd5b600154604080517f4f558e79000000000000000000000000000000000000000000000000000000008152600481018790529051600160a060020a0390921691634f558e79916024808201926020929091908290030181600087803b1580156109f857600080fd5b505af1158015610a0c573d6000803e3d6000fd5b505050506040513d6020811015610a2257600080fd5b50511515610a2f57600080fd5b600154604080517f6352211e0000000000000000000000000000000000000000000000000000000081526004810187905290513392600160a060020a031691636352211e9160248083019260209291908290030181600087803b158015610a9557600080fd5b505af1158015610aa9573d6000803e3d6000fd5b505050506040513d6020811015610abf57600080fd5b5051600160a060020a031614610ad457600080fd5b50604080516080810182528481526020808201858152828401859052600160608401819052600480548083019091557f8a35acfbc15ff81a39ae7d344fd709f28e8600b4aa8c65c6b64bfe7fe36bd19b01889055600088815260058452949094208351815590518051939485949293610b5293918501920190611032565b506040820151816002015560608201518160030160006101000a81548160ff0219169083151502179055509050507f6dd0270bf62d2e8a369be6882a6117c5e76abb45df23c67e54b98671fb9a04168484846040518084815260200180602001838152602001828103825284818151815260200191508051906020019080838360005b83811015610bed578181015183820152602001610bd5565b50505050905090810190601f168015610c1a5780820380516001836020036101000a031916815260200191505b5094505050505060405180910390a150505050565b600860205281600052604060002081815481101515610c4a57fe5b90600052602060002001600091509150505481565b600054600160a060020a03163314610c7657600080fd5b600160a060020a0381161515610c8b57600080fd5b60008281526005602052604090206003015460ff161515610cab57600080fd5b610cb58183610da2565b6040805160008152602081018490528151600160a060020a0384169233927f623b3804fa71d67900d064613da8f94b9617215ee90799290593e1745087ad18929081900390910190a3610d0a81600084610e46565b5050565b60045490565b600054600160a060020a03163314610d2b57600080fd5b610d3481610f2c565b50565b6004805482908110610d4557fe5b600091825260209091200154905081565b600154600160a060020a031681565b6006544210158015610d7957506007544211155b1515610d8457600080fd5b610592838383610fa9565b81810182811015610d9c57fe5b92915050565b600160a060020a0382166000908152600860205260409020541515610e1a57600980546001810182556000919091527f6e1540171b6c0c960b71a7020d9f60077f6af931a8bbf590da0223dacf75c7af01805473ffffffffffffffffffffffffffffffffffffffff1916600160a060020a0384161790555b600160a060020a0390911660009081526008602090815260408220805460018101825590835291200155565b6000908152600560205260409020600301805460ff191690555050565b600254604051600160a060020a03909116903480156108fc02916000818181858888f19350505050158015610d34573d6000803e3d6000fd5b600154604080517f42842e0e000000000000000000000000000000000000000000000000000000008152306004820152600160a060020a03858116602483015260448201859052915191909216916342842e0e91606480830192600092919082900301818387803b158015610f1057600080fd5b505af1158015610f24573d6000803e3d6000fd5b505050505050565b600160a060020a0381161515610f4157600080fd5b60008054604051600160a060020a03808516939216917f8be0079c531659141344cd1fd0a4f28419497f9722a3daafe3b4186f6b6457e091a36000805473ffffffffffffffffffffffffffffffffffffffff1916600160a060020a0392909216919091179055565b600160a060020a0383161515610fbe57600080fd5b811515610fca57600080fd5b60008181526005602052604090206003015460ff161515610fea57600080fd5b600081815260056020526040902060020154821461059257600080fd5b6080604051908101604052806000815260200160608152602001600081526020016000151581525090565b828054600181600116156101000203166002900490600052602060002090601f016020900481019282601f1061107357805160ff19168380011785556110a0565b828001600101855582156110a0579182015b828111156110a0578251825591602001919060010190611085565b506110ac9291506110b0565b5090565b6104fd91905b808211156110ac57600081556001016110b65600a165627a7a723058203732ca3d30fdf2158354ca20624e91ee8bbce6c0a3843e2f2f34b72c5d2901640029",
  "source": "pragma solidity ^0.4.24;\n\nimport \"./PostDeliveryCrowdsaleERC721.sol\";\nimport \"zeppelin-solidity/contracts/token/ERC721/ERC721Receiver.sol\";\n\ncontract DemoCrowdsale is PostDeliveryCrowdsaleERC721, ERC721Receiver{\n\n    constructor(address wallet, DemoToken token, uint256 _openingTime, uint256 _closingTime)\n    CrowdsaleERC721(wallet, token)\n    TimedCrowdsaleERC721(_openingTime, _closingTime)\n    public{ }\n\n    // msg.sender, _from, _tokenId, _data\n    function onERC721Received(\n        address _operator,\n        address _from,\n        uint256 _tokenId,\n        bytes _data\n    )\n    public\n    returns(bytes4){\n        return ERC721_RECEIVED;\n    }\n\n    function sellToken(uint256 tokenId, address beneficiary) public onlyOwner {\n        require(beneficiary != address(0));\n        require(tokens[tokenId].available);\n\n        _processPurchase(beneficiary, tokenId);\n\n        emit TokenPurchase(\n            msg.sender,\n            beneficiary,\n            0,\n            tokenId\n        );\n\n        _updatePurchasingState(beneficiary, 0, tokenId);\n    }\n}",
  "sourcePath": "/home/alejandro/workspace/espinlabs/erc721/contracts/crowdsale/DemoCrowdsale.sol",
  "compiler": {
    "name": "solc",
    "version": "0.4.24+commit.e67f0147.Emscripten.clang"
  },
  "schemaVersion": "2.0.0",
  "updatedAt": "2018-10-08T12:53:50.565Z"
}