{
  "contractName": "Fake",
  "abi": [
    {
      "inputs": [
        {
          "name": "name",
          "type": "string"
        }
      ],
      "payable": false,
      "stateMutability": "nonpayable",
      "type": "constructor"
    },
    {
      "constant": false,
      "inputs": [],
      "name": "mint",
      "outputs": [
        {
          "name": "",
          "type": "uint256"
        }
      ],
      "payable": false,
      "stateMutability": "nonpayable",
      "type": "function"
    },
    {
      "constant": true,
      "inputs": [],
      "name": "totalSupply",
      "outputs": [
        {
          "name": "",
          "type": "uint256"
        }
      ],
      "payable": false,
      "stateMutability": "view",
      "type": "function"
    }
  ],
  "bytecode": "0x608060405234801561001057600080fd5b506040516101ec3803806101ec833981018060405281019080805182019291905050508060009080519060200190610049929190610050565b50506100f5565b828054600181600116156101000203166002900490600052602060002090601f016020900481019282601f1061009157805160ff19168380011785556100bf565b828001600101855582156100bf579182015b828111156100be5782518255916020019190600101906100a3565b5b5090506100cc91906100d0565b5090565b6100f291905b808211156100ee5760008160009055506001016100d6565b5090565b90565b60e9806101036000396000f3006080604052600436106049576000357c0100000000000000000000000000000000000000000000000000000000900463ffffffff1680631249c58b14604e57806318160ddd146076575b600080fd5b348015605957600080fd5b506060609e565b6040518082815260200191505060405180910390f35b348015608157600080fd5b50608860b3565b6040518082815260200191505060405180910390f35b60006001805401600181905550600154905090565b60006001549050905600a165627a7a72305820e342a70005c794209e9125ba57be53f86e6bfde28635ed2868cb896c3040c41e0029",
  "source": "pragma solidity ^0.4.24;\n\ncontract Fake{\n\n    string _name;\n    uint256 _total;\n\n    constructor(string name) public {\n        _name = name;\n    }\n\n    function mint() public returns (uint256){\n        _total = _total + 1;\n        return _total;\n    }\n\n    function totalSupply() public view returns (uint256){\n        return _total;\n    }\n}",
  "sourcePath": "/home/alejandro/workspace/espinlabs/erc721/contracts/fake/Fake.sol",
  "compiler": {
    "name": "solc",
    "version": "0.4.24+commit.e67f0147.Emscripten.clang"
  },
  "schemaVersion": "2.0.0",
  "updatedAt": "2018-09-30T21:12:10.203Z"
}