{
  "contractName": "LOCC_ICO",
  "abi": [
    {
      "constant": true,
      "inputs": [],
      "name": "pricePreICO",
      "outputs": [
        {
          "name": "",
          "type": "uint256"
        }
      ],
      "payable": false,
      "stateMutability": "view",
      "type": "function"
    },
    {
      "constant": true,
      "inputs": [
        {
          "name": "_operator",
          "type": "address"
        },
        {
          "name": "_role",
          "type": "string"
        }
      ],
      "name": "checkRole",
      "outputs": [],
      "payable": false,
      "stateMutability": "view",
      "type": "function"
    },
    {
      "constant": true,
      "inputs": [],
      "name": "ROLE_WHITELISTED",
      "outputs": [
        {
          "name": "",
          "type": "string"
        }
      ],
      "payable": false,
      "stateMutability": "view",
      "type": "function"
    },
    {
      "constant": true,
      "inputs": [
        {
          "name": "_operator",
          "type": "address"
        },
        {
          "name": "_role",
          "type": "string"
        }
      ],
      "name": "hasRole",
      "outputs": [
        {
          "name": "",
          "type": "bool"
        }
      ],
      "payable": false,
      "stateMutability": "view",
      "type": "function"
    },
    {
      "constant": false,
      "inputs": [
        {
          "name": "_operators",
          "type": "address[]"
        }
      ],
      "name": "removeAddressesFromWhitelist",
      "outputs": [],
      "payable": false,
      "stateMutability": "nonpayable",
      "type": "function"
    },
    {
      "constant": false,
      "inputs": [
        {
          "name": "_operator",
          "type": "address"
        }
      ],
      "name": "removeAddressFromWhitelist",
      "outputs": [],
      "payable": false,
      "stateMutability": "nonpayable",
      "type": "function"
    },
    {
      "constant": true,
      "inputs": [],
      "name": "rate",
      "outputs": [
        {
          "name": "",
          "type": "uint256"
        }
      ],
      "payable": false,
      "stateMutability": "view",
      "type": "function"
    },
    {
      "constant": true,
      "inputs": [],
      "name": "weiRaised",
      "outputs": [
        {
          "name": "",
          "type": "uint256"
        }
      ],
      "payable": false,
      "stateMutability": "view",
      "type": "function"
    },
    {
      "constant": true,
      "inputs": [],
      "name": "wallet",
      "outputs": [
        {
          "name": "",
          "type": "address"
        }
      ],
      "payable": false,
      "stateMutability": "view",
      "type": "function"
    },
    {
      "constant": false,
      "inputs": [],
      "name": "renounceOwnership",
      "outputs": [],
      "payable": false,
      "stateMutability": "nonpayable",
      "type": "function"
    },
    {
      "constant": false,
      "inputs": [
        {
          "name": "_operator",
          "type": "address"
        }
      ],
      "name": "addAddressToWhitelist",
      "outputs": [],
      "payable": false,
      "stateMutability": "nonpayable",
      "type": "function"
    },
    {
      "constant": true,
      "inputs": [],
      "name": "owner",
      "outputs": [
        {
          "name": "",
          "type": "address"
        }
      ],
      "payable": false,
      "stateMutability": "view",
      "type": "function"
    },
    {
      "constant": true,
      "inputs": [
        {
          "name": "_operator",
          "type": "address"
        }
      ],
      "name": "whitelist",
      "outputs": [
        {
          "name": "",
          "type": "bool"
        }
      ],
      "payable": false,
      "stateMutability": "view",
      "type": "function"
    },
    {
      "constant": true,
      "inputs": [],
      "name": "priceICO",
      "outputs": [
        {
          "name": "",
          "type": "uint256"
        }
      ],
      "payable": false,
      "stateMutability": "view",
      "type": "function"
    },
    {
      "constant": false,
      "inputs": [
        {
          "name": "_operators",
          "type": "address[]"
        }
      ],
      "name": "addAddressesToWhitelist",
      "outputs": [],
      "payable": false,
      "stateMutability": "nonpayable",
      "type": "function"
    },
    {
      "constant": false,
      "inputs": [
        {
          "name": "_beneficiary",
          "type": "address"
        }
      ],
      "name": "buyTokens",
      "outputs": [],
      "payable": true,
      "stateMutability": "payable",
      "type": "function"
    },
    {
      "constant": false,
      "inputs": [
        {
          "name": "_newOwner",
          "type": "address"
        }
      ],
      "name": "transferOwnership",
      "outputs": [],
      "payable": false,
      "stateMutability": "nonpayable",
      "type": "function"
    },
    {
      "constant": true,
      "inputs": [],
      "name": "token",
      "outputs": [
        {
          "name": "",
          "type": "address"
        }
      ],
      "payable": false,
      "stateMutability": "view",
      "type": "function"
    },
    {
      "inputs": [
        {
          "name": "_wallet",
          "type": "address"
        },
        {
          "name": "_token",
          "type": "address"
        },
        {
          "name": "_pricePreICO",
          "type": "uint256"
        },
        {
          "name": "_priceICO",
          "type": "uint256"
        }
      ],
      "payable": false,
      "stateMutability": "nonpayable",
      "type": "constructor"
    },
    {
      "payable": true,
      "stateMutability": "payable",
      "type": "fallback"
    },
    {
      "anonymous": false,
      "inputs": [
        {
          "indexed": true,
          "name": "purchaser",
          "type": "address"
        },
        {
          "indexed": true,
          "name": "beneficiary",
          "type": "address"
        },
        {
          "indexed": false,
          "name": "value",
          "type": "uint256"
        },
        {
          "indexed": false,
          "name": "amount",
          "type": "uint256"
        }
      ],
      "name": "TokenPurchase",
      "type": "event"
    },
    {
      "anonymous": false,
      "inputs": [
        {
          "indexed": true,
          "name": "operator",
          "type": "address"
        },
        {
          "indexed": false,
          "name": "role",
          "type": "string"
        }
      ],
      "name": "RoleAdded",
      "type": "event"
    },
    {
      "anonymous": false,
      "inputs": [
        {
          "indexed": true,
          "name": "operator",
          "type": "address"
        },
        {
          "indexed": false,
          "name": "role",
          "type": "string"
        }
      ],
      "name": "RoleRemoved",
      "type": "event"
    },
    {
      "anonymous": false,
      "inputs": [
        {
          "indexed": true,
          "name": "previousOwner",
          "type": "address"
        }
      ],
      "name": "OwnershipRenounced",
      "type": "event"
    },
    {
      "anonymous": false,
      "inputs": [
        {
          "indexed": true,
          "name": "previousOwner",
          "type": "address"
        },
        {
          "indexed": true,
          "name": "newOwner",
          "type": "address"
        }
      ],
      "name": "OwnershipTransferred",
      "type": "event"
    },
    {
      "constant": false,
      "inputs": [],
      "name": "startPreIco",
      "outputs": [],
      "payable": false,
      "stateMutability": "nonpayable",
      "type": "function"
    },
    {
      "constant": false,
      "inputs": [],
      "name": "startIco",
      "outputs": [],
      "payable": false,
      "stateMutability": "nonpayable",
      "type": "function"
    },
    {
      "constant": false,
      "inputs": [],
      "name": "finalizeIco",
      "outputs": [],
      "payable": false,
      "stateMutability": "nonpayable",
      "type": "function"
    },
    {
      "constant": true,
      "inputs": [],
      "name": "hasClosed",
      "outputs": [
        {
          "name": "",
          "type": "bool"
        }
      ],
      "payable": false,
      "stateMutability": "view",
      "type": "function"
    }
  ],
  "bytecode": "0x608060405234801561001057600080fd5b50604051608080611ade8339810180604052810190808051906020019092919080519060200190929190805190602001909291908051906020019092919050505060018484336000806101000a81548173ffffffffffffffffffffffffffffffffffffffff021916908373ffffffffffffffffffffffffffffffffffffffff1602179055506000831115156100a457600080fd5b600073ffffffffffffffffffffffffffffffffffffffff168273ffffffffffffffffffffffffffffffffffffffff16141515156100e057600080fd5b600073ffffffffffffffffffffffffffffffffffffffff168173ffffffffffffffffffffffffffffffffffffffff161415151561011c57600080fd5b8260048190555081600360006101000a81548173ffffffffffffffffffffffffffffffffffffffff021916908373ffffffffffffffffffffffffffffffffffffffff16021790555080600260006101000a81548173ffffffffffffffffffffffffffffffffffffffff021916908373ffffffffffffffffffffffffffffffffffffffff16021790555050505081600781905550806008819055506000600660006101000a81548160ff021916908360038111156101d557fe5b0217905550505050506118f1806101ed6000396000f300608060405260043610610128576000357c0100000000000000000000000000000000000000000000000000000000900463ffffffff16806308ce2136146101335780630988ca8c1461015e5780631515bc2b146101e757806318b919e914610216578063217fe6c6146102a657806324953eaa14610347578063286dd3f5146103ad5780632c4e722e146103f05780634042b66f1461041b578063521eb27314610446578063715018a61461049d5780637b9417c8146104b457806389311e6f146104f75780638da5cb5b1461050e578063903a3ef6146105655780639b19251a1461057c578063c06d1272146105d7578063d63e7cc1146105ee578063e2ec6ec314610619578063ec8ac4d81461067f578063f2fde38b146106b5578063fc0c546a146106f8575b6101313361074f565b005b34801561013f57600080fd5b5061014861081d565b6040518082815260200191505060405180910390f35b34801561016a57600080fd5b506101e5600480360381019080803573ffffffffffffffffffffffffffffffffffffffff169060200190929190803590602001908201803590602001908080601f0160208091040260200160405190810160405280939291908181526020018383808284378201915050505050509192919290505050610823565b005b3480156101f357600080fd5b506101fc6108a4565b604051808215151515815260200191505060405180910390f35b34801561022257600080fd5b5061022b6108d3565b6040518080602001828103825283818151815260200191508051906020019080838360005b8381101561026b578082015181840152602081019050610250565b50505050905090810190601f1680156102985780820380516001836020036101000a031916815260200191505b509250505060405180910390f35b3480156102b257600080fd5b5061032d600480360381019080803573ffffffffffffffffffffffffffffffffffffffff169060200190929190803590602001908201803590602001908080601f016020809104026020016040519081016040528093929190818152602001838380828437820191505050505050919291929050505061090c565b604051808215151515815260200191505060405180910390f35b34801561035357600080fd5b506103ab60048036038101908080359060200190820180359060200190808060200260200160405190810160405280939291908181526020018383602002808284378201915050505050509192919290505050610993565b005b3480156103b957600080fd5b506103ee600480360381019080803573ffffffffffffffffffffffffffffffffffffffff169060200190929190505050610a2f565b005b3480156103fc57600080fd5b50610405610acc565b6040518082815260200191505060405180910390f35b34801561042757600080fd5b50610430610ad2565b6040518082815260200191505060405180910390f35b34801561045257600080fd5b5061045b610ad8565b604051808273ffffffffffffffffffffffffffffffffffffffff1673ffffffffffffffffffffffffffffffffffffffff16815260200191505060405180910390f35b3480156104a957600080fd5b506104b2610afe565b005b3480156104c057600080fd5b506104f5600480360381019080803573ffffffffffffffffffffffffffffffffffffffff169060200190929190505050610c00565b005b34801561050357600080fd5b5061050c610c9d565b005b34801561051a57600080fd5b50610523610d52565b604051808273ffffffffffffffffffffffffffffffffffffffff1673ffffffffffffffffffffffffffffffffffffffff16815260200191505060405180910390f35b34801561057157600080fd5b5061057a610d77565b005b34801561058857600080fd5b506105bd600480360381019080803573ffffffffffffffffffffffffffffffffffffffff169060200190929190505050610e2c565b604051808215151515815260200191505060405180910390f35b3480156105e357600080fd5b506105ec610e74565b005b3480156105fa57600080fd5b50610603610f29565b6040518082815260200191505060405180910390f35b34801561062557600080fd5b5061067d60048036038101908080359060200190820180359060200190808060200260200160405190810160405280939291908181526020018383602002808284378201915050505050509192919290505050610f2f565b005b6106b3600480360381019080803573ffffffffffffffffffffffffffffffffffffffff16906020019092919050505061074f565b005b3480156106c157600080fd5b506106f6600480360381019080803573ffffffffffffffffffffffffffffffffffffffff169060200190929190505050610fcb565b005b34801561070457600080fd5b5061070d611032565b604051808273ffffffffffffffffffffffffffffffffffffffff1673ffffffffffffffffffffffffffffffffffffffff16815260200191505060405180910390f35b60008034915061075f8383611058565b610768826110e3565b905061077f8260055461114c90919063ffffffff16565b60058190555061078f8382611168565b8273ffffffffffffffffffffffffffffffffffffffff163373ffffffffffffffffffffffffffffffffffffffff167f623b3804fa71d67900d064613da8f94b9617215ee90799290593e1745087ad188484604051808381526020018281526020019250505060405180910390a36108068383611176565b61080e61117a565b61081883836111e5565b505050565b60075481565b6108a0826001836040518082805190602001908083835b60208310151561085f578051825260208201915060208101905060208303925061083a565b6001836020036101000a03801982511681845116808217855250505050505090500191505090815260200160405180910390206111e990919063ffffffff16565b5050565b60006003808111156108b257fe5b600660009054906101000a900460ff1660038111156108cd57fe5b14905090565b6040805190810160405280600981526020017f77686974656c697374000000000000000000000000000000000000000000000081525081565b600061098b836001846040518082805190602001908083835b60208310151561094a5780518252602082019150602081019050602083039250610925565b6001836020036101000a038019825116818451168082178552505050505050905001915050908152602001604051809103902061120290919063ffffffff16565b905092915050565b60008060009054906101000a900473ffffffffffffffffffffffffffffffffffffffff1673ffffffffffffffffffffffffffffffffffffffff163373ffffffffffffffffffffffffffffffffffffffff161415156109f057600080fd5b600090505b8151811015610a2b57610a1e8282815181101515610a0f57fe5b90602001906020020151610a2f565b80806001019150506109f5565b5050565b6000809054906101000a900473ffffffffffffffffffffffffffffffffffffffff1673ffffffffffffffffffffffffffffffffffffffff163373ffffffffffffffffffffffffffffffffffffffff16141515610a8a57600080fd5b610ac9816040805190810160405280600981526020017f77686974656c697374000000000000000000000000000000000000000000000081525061125b565b50565b60045481565b60055481565b600360009054906101000a900473ffffffffffffffffffffffffffffffffffffffff1681565b6000809054906101000a900473ffffffffffffffffffffffffffffffffffffffff1673ffffffffffffffffffffffffffffffffffffffff163373ffffffffffffffffffffffffffffffffffffffff16141515610b5957600080fd5b6000809054906101000a900473ffffffffffffffffffffffffffffffffffffffff1673ffffffffffffffffffffffffffffffffffffffff167ff8df31144d9c2f0f6b59d69b8b98abd5459d07f2742c4df920b25aae33c6482060405160405180910390a260008060006101000a81548173ffffffffffffffffffffffffffffffffffffffff021916908373ffffffffffffffffffffffffffffffffffffffff160217905550565b6000809054906101000a900473ffffffffffffffffffffffffffffffffffffffff1673ffffffffffffffffffffffffffffffffffffffff163373ffffffffffffffffffffffffffffffffffffffff16141515610c5b57600080fd5b610c9a816040805190810160405280600981526020017f77686974656c697374000000000000000000000000000000000000000000000081525061138f565b50565b6000809054906101000a900473ffffffffffffffffffffffffffffffffffffffff1673ffffffffffffffffffffffffffffffffffffffff163373ffffffffffffffffffffffffffffffffffffffff16141515610cf857600080fd5b600380811115610d0457fe5b600660009054906101000a900460ff166003811115610d1f57fe5b14151515610d2c57600080fd5b6002600660006101000a81548160ff02191690836003811115610d4b57fe5b0217905550565b6000809054906101000a900473ffffffffffffffffffffffffffffffffffffffff1681565b6000809054906101000a900473ffffffffffffffffffffffffffffffffffffffff1673ffffffffffffffffffffffffffffffffffffffff163373ffffffffffffffffffffffffffffffffffffffff16141515610dd257600080fd5b600380811115610dde57fe5b600660009054906101000a900460ff166003811115610df957fe5b14151515610e0657600080fd5b6003600660006101000a81548160ff02191690836003811115610e2557fe5b0217905550565b6000610e6d826040805190810160405280600981526020017f77686974656c697374000000000000000000000000000000000000000000000081525061090c565b9050919050565b6000809054906101000a900473ffffffffffffffffffffffffffffffffffffffff1673ffffffffffffffffffffffffffffffffffffffff163373ffffffffffffffffffffffffffffffffffffffff16141515610ecf57600080fd5b60006003811115610edc57fe5b600660009054906101000a900460ff166003811115610ef757fe5b141515610f0357600080fd5b6001600660006101000a81548160ff02191690836003811115610f2257fe5b0217905550565b60085481565b60008060009054906101000a900473ffffffffffffffffffffffffffffffffffffffff1673ffffffffffffffffffffffffffffffffffffffff163373ffffffffffffffffffffffffffffffffffffffff16141515610f8c57600080fd5b600090505b8151811015610fc757610fba8282815181101515610fab57fe5b90602001906020020151610c00565b8080600101915050610f91565b5050565b6000809054906101000a900473ffffffffffffffffffffffffffffffffffffffff1673ffffffffffffffffffffffffffffffffffffffff163373ffffffffffffffffffffffffffffffffffffffff1614151561102657600080fd5b61102f816114c3565b50565b600260009054906101000a900473ffffffffffffffffffffffffffffffffffffffff1681565b6110606108a4565b1515156110d5576040517f08c379a00000000000000000000000000000000000000000000000000000000081526004018080602001828103825260118152602001807f5468652049434f20697320636c6f73656400000000000000000000000000000081525060200191505060405180910390fd5b6110df82826115bd565b5050565b6000600160038111156110f257fe5b600660009054906101000a900460ff16600381111561110d57fe5b141561112f576111286007548361160c90919063ffffffff16565b9050611147565b6111446008548361160c90919063ffffffff16565b90505b919050565b6000818301905082811015151561115f57fe5b80905092915050565b6111728282611622565b5050565b5050565b600360009054906101000a900473ffffffffffffffffffffffffffffffffffffffff1673ffffffffffffffffffffffffffffffffffffffff166108fc349081150290604051600060405180830381858888f193505050501580156111e2573d6000803e3d6000fd5b50565b5050565b6111f38282611202565b15156111fe57600080fd5b5050565b60008260000160008373ffffffffffffffffffffffffffffffffffffffff1673ffffffffffffffffffffffffffffffffffffffff16815260200190815260200160002060009054906101000a900460ff16905092915050565b6112d8826001836040518082805190602001908083835b6020831015156112975780518252602082019150602081019050602083039250611272565b6001836020036101000a038019825116818451168082178552505050505050905001915050908152602001604051809103902061169690919063ffffffff16565b8173ffffffffffffffffffffffffffffffffffffffff167fd211483f91fc6eff862467f8de606587a30c8fc9981056f051b897a418df803a826040518080602001828103825283818151815260200191508051906020019080838360005b83811015611351578082015181840152602081019050611336565b50505050905090810190601f16801561137e5780820380516001836020036101000a031916815260200191505b509250505060405180910390a25050565b61140c826001836040518082805190602001908083835b6020831015156113cb57805182526020820191506020810190506020830392506113a6565b6001836020036101000a03801982511681845116808217855250505050505090500191505090815260200160405180910390206116f490919063ffffffff16565b8173ffffffffffffffffffffffffffffffffffffffff167fbfec83d64eaa953f2708271a023ab9ee82057f8f3578d548c1a4ba0b5b700489826040518080602001828103825283818151815260200191508051906020019080838360005b8381101561148557808201518184015260208101905061146a565b50505050905090810190601f1680156114b25780820380516001836020036101000a031916815260200191505b509250505060405180910390a25050565b600073ffffffffffffffffffffffffffffffffffffffff168173ffffffffffffffffffffffffffffffffffffffff16141515156114ff57600080fd5b8073ffffffffffffffffffffffffffffffffffffffff166000809054906101000a900473ffffffffffffffffffffffffffffffffffffffff1673ffffffffffffffffffffffffffffffffffffffff167f8be0079c531659141344cd1fd0a4f28419497f9722a3daafe3b4186f6b6457e060405160405180910390a3806000806101000a81548173ffffffffffffffffffffffffffffffffffffffff021916908373ffffffffffffffffffffffffffffffffffffffff16021790555050565b816115fd816040805190810160405280600981526020017f77686974656c6973740000000000000000000000000000000000000000000000815250610823565b6116078383611752565b505050565b6000818381151561161957fe5b04905092915050565b6116926000809054906101000a900473ffffffffffffffffffffffffffffffffffffffff168383600260009054906101000a900473ffffffffffffffffffffffffffffffffffffffff1673ffffffffffffffffffffffffffffffffffffffff166117a2909392919063ffffffff16565b5050565b60008260000160008373ffffffffffffffffffffffffffffffffffffffff1673ffffffffffffffffffffffffffffffffffffffff16815260200190815260200160002060006101000a81548160ff0219169083151502179055505050565b60018260000160008373ffffffffffffffffffffffffffffffffffffffff1673ffffffffffffffffffffffffffffffffffffffff16815260200190815260200160002060006101000a81548160ff0219169083151502179055505050565b600073ffffffffffffffffffffffffffffffffffffffff168273ffffffffffffffffffffffffffffffffffffffff161415151561178e57600080fd5b6000811415151561179e57600080fd5b5050565b8373ffffffffffffffffffffffffffffffffffffffff166323b872dd8484846040518463ffffffff167c0100000000000000000000000000000000000000000000000000000000028152600401808473ffffffffffffffffffffffffffffffffffffffff1673ffffffffffffffffffffffffffffffffffffffff1681526020018373ffffffffffffffffffffffffffffffffffffffff1673ffffffffffffffffffffffffffffffffffffffff1681526020018281526020019350505050602060405180830381600087803b15801561187957600080fd5b505af115801561188d573d6000803e3d6000fd5b505050506040513d60208110156118a357600080fd5b810190808051906020019092919050505015156118bf57600080fd5b505050505600a165627a7a723058207b4c50f4ad43862e2d8dbcc47c9dc557dafa0fd8bbd0aabd8d5e63a54bdf64c80029",
  "source": "pragma solidity ^0.4.24;\n\nimport \"zeppelin-solidity/contracts/crowdsale/validation/WhitelistedCrowdsale.sol\";\n\ncontract LOCC_ICO is WhitelistedCrowdsale{\n\n    enum Stages {\n        none,\n        preICO,\n        icoStart,\n        icoEnd\n    }\n\n    Stages currentStage;\n    uint256 public pricePreICO;\n    uint256 public priceICO;\n\n    constructor(address _wallet, ERC20 _token, uint256 _pricePreICO, uint256 _priceICO) public\n    Crowdsale(1, _wallet, _token)\n    {\n        pricePreICO = _pricePreICO;\n        priceICO = _priceICO;\n        currentStage = Stages.none;\n    }\n\n    /**\n     * @dev startIco starts the public ICO\n     **/\n    function startPreIco() public onlyOwner {\n        require(currentStage == Stages.none);\n        currentStage = Stages.preICO;\n    }\n\n    /**\n     * @dev startIco starts the public ICO\n     **/\n    function startIco() public onlyOwner {\n        require(currentStage != Stages.icoEnd);\n        currentStage = Stages.icoStart;\n    }\n\n    /**\n     * @dev finalizeIco closes down the ICO\n     **/\n    function finalizeIco() public onlyOwner {\n        require(currentStage != Stages.icoEnd);\n        currentStage = Stages.icoEnd;\n    }\n\n    function hasClosed() public view returns (bool){\n        return currentStage == Stages.icoEnd;\n    }\n\n    function _preValidatePurchase(\n        address _beneficiary,\n        uint256 _weiAmount\n    )\n    internal\n    {\n        require(!hasClosed(), \"The ICO is closed\");\n        super._preValidatePurchase(_beneficiary, _weiAmount);\n    }\n\n    function _getTokenAmount(uint256 _weiAmount)\n    internal view returns (uint256)\n    {\n        if(currentStage == Stages.preICO){\n            return _weiAmount.div(pricePreICO);\n        }else{\n            return _weiAmount.div(priceICO);\n        }\n    }\n\n    function _deliverTokens(\n        address _beneficiary,\n        uint256 _tokenAmount\n    )\n    internal\n    {\n        token.safeTransferFrom(owner, _beneficiary, _tokenAmount);\n    }\n}",
  "sourcePath": "/home/alejandro/workspace/espinlabs/erc721/contracts/crowdsale/erc223/LOCC_ICO.sol",
  "compiler": {
    "name": "solc",
    "version": "0.4.24+commit.e67f0147.Emscripten.clang"
  },
  "schemaVersion": "2.0.0",
  "updatedAt": "2018-10-11T13:48:52.532Z"
}